:100000000C9434000C943E000C943E000C943E0082
:100010000C943E000C943E000C943E000C943E0068
:100020000C943E000C943E000C943E000C943E0058
:100030000C943E000C943E000C943E000C943E0048
:100040000C943E000C943E000C943E000C943E0038
:100050000C943E000C943E000C943E000C943E0028
:100060000C943E000C943E0011241FBECFEFD8E04C
:10007000DEBFCDBF0E9468000C941E010C940000EE
:10008000DC01CB016FB7F89445B1426055B15D7F9B
:1000900037E02D9145B9220F30F055B9000027FB0C
:1000A000315031F0F7CF000027FB315055B991F7AF
:1000B00037E045B93EF0000055B92D91019751F751
:1000C0006FBF08952D91019755B921F76FBF08951E
:1000D000CF93DF93CDB7DEB762970FB6F894DEBF4C
:1000E0000FBECDBF209A219A229AFE01319682E15D
:1000F000DF011D928A95E9F7DD24D39400E010E03A
:10010000F12C0F2EF3E09F2EF02D0F2EF1E3EF2EAA
:10011000F02D0F2EF5E0AF2EF02D6894BB24B2F831
:10012000882483946894CC24C1F862E170E0CE0105
:1001300001960E944000123071F128F4112359F009
:100140001130D1F060C0143009F441C090F1153085
:1001500009F44BC058C081E0800F833308F055C0CC
:10016000D11005C09E2D901B988B898B9A8BF9829C
:100170008A83FB82082F5BC081E0800F833308F005
:1001800048C089839E2D901B9A83FB828C83FD82BD
:10019000FE82082F4CC081E0800F8333E8F59E2D4E
:1001A000901B9C83FD828E83FF82F8868987082FAF
:1001B0003EC081E0800F833390F5FF8288879E2DBB
:1001C000901B99878A878B87FC86082F30C081E037
:1001D000800F833338F59E2D901B9A879B878C87E1
:1001E000FD868E878F87082F22C081E0800F8333A2
:1001F000E0F49E2D901B8D879E879F87888BF98AC0
:100200008A8B082F14C01F2D12C0DF2C0F2D182D24
:100210000EC00F2D1C2D0BC00F2D192D08C00F2D3A
:100220001B2D05C00F2D1A2D02C00F2D1F2D8FE97C
:100230009FE00197F1F700C0000077CFF894FFCF5F
:00000001FF
