S01A0000647331384232302D6176722D6472697665722E73726563F7
S11300000C949C000C94B9000C94B9000C94B900A5
S11300100C94B9000C94B9000C94B9000C94B90078
S11300200C94B9000C94B9000C94B9000C94B90068
S11300300C94B9000C94B9000C94B9000C94B90058
S11300400C94B9000C94B9000C94B9000C94B90048
S11300500C94B9000C94B9000C94B9000C94B90038
S11300600C94B9000C94B900A104A503A503A5033D
S1130070A503A503A503A503A503A503A503A5033C
S1130080A503A503A503A503A503A503A5039C0434
S1130090A503A503A503A503A503A503A503A5031C
S11300A0A503A503A503A503A503A503A5036B0445
S11300B08104A503A503A503A503A503D205810611
S11300C03007A503A503A503A503A503A503A5035D
S11300D0A503A604A503A503A503A503A503A503DA
S11300E0A503A503A503A503A503A503A503A503CC
S11300F0A503A503A503A503A503A503A503A503BC
S1130100A503A503A503A503A503A503A503A503AB
S11301101404C304DE049C053C05A503A503B50330
S11301207005A5033D098E08DF079704A503A50301
S1130130EC09A503AF050B0A11241FBECFEFD8E0CD
S1130140DEBFCDBF16E0A0E0B1E0E6EBFDE102C00A
S113015005900D92A236B107D9F726E0A2E6B6E0E3
S113016001C01D92A137B207E1F70E9433030C943A
S1130170D90E0C9400000F931F93CF93DF93CDB748
S1130180DEB727970FB6F894DEBF0FBECDBF098345
S11301901A832B833C834D835E836F83E981FA81C9
S11301A0AD81BE818823B1F03C9181E090E002C032
S11301B0880F991F6A95E2F7982F909593239C9343
S11301C09081892B80838C918F7B8C938081806438
S11301D0808315C03C9181E090E002C0880F991F94
S11301E06A95E2F7932F982B9C93908180958923AD
S11301F080838C9180648C9380818F7B808327960D
S11302000FB6F894DEBF0FBECDBFDF91CF911F9123
S11302100F910895CF93DF93CDB7DEB727970FB62D
S1130220F894DEBF0FBECDBF29833A834B835C8332
S11302306D837E838F83ED81FE81808121E030E0B8
S11302400F8002C0220F331F0A94E2F7922F909579
S113025089238083E981FA818081822B8083EB81E9
S1130260FC81808190E08223932327960FB6F89433
S1130270DEBF0FBECDBFDF91CF9108950F931F93C3
S1130280CF93DF93CDB7DEB727970FB6F894DEBFD1
S11302900FBECDBF022F2983132F3A83242F4B8304
S11302A0352F5C83462F6D83572F7E83682F8F8372
S11302B080E00E94BB008FE599E00197F1F700C050
S11302C0000009811A812B813C814D815E816F81FF
S11302D081E00E94BB008FE891E00197F1F700C034
S11302E00000529A5A9A29813A814B815C816D812E
S11302F07E818F810E940A01282F9BB1987F9BB930
S113030095E09A95F1F700008BEC97E00197F1F7EF
S113031000C0000081E0211101C080E027960FB6E3
S1130320F894DEBF0FBECDBFDF91CF911F910F9127
S113033008950F931F93CF93DF93CDB7DEB727971D
S11303400FB6F894DEBF0FBECDBF09831A832B838B
S11303503C834D835E836F83EFE8F1E03197F1F7DF
S113036000C000008823F9F009811A812B813C81A7
S11303704D815E816F8180E00E94BB00F5E3FA95B8
S1130380F1F7000009811A812B813C814D815E8146
S11303906F8181E00E94BB0087EC90E00197F1F748
S11303A000C0000010C009811A812B813C814D815D
S11303B05E816F8180E00E94BB00EFEEF0E0319738
S11303C0F1F700C0000009811A812B813C814D8125
S11303D05E816F8181E00E94BB0027960FB6F8947E
S11303E0DEBF0FBECDBFDF91CF911F910F91089556
S11303F0BF92CF92DF92EF92FF920F931F93CF930E
S1130400DF93CDB7DEB727970FB6F894DEBF0FBEE4
S1130410CDBFB82E09831A832B833C834D835E831F
S11304206F83E12CF12CCC24C394D12CC6010E2C67
S113043002C0880F991F0A94E2F709811A812B815F
S11304403C814D815E816F818B210E9499018FEFE8
S1130450E81AF80A98E0E916F10441F78FEC97E0FE
S11304600197F1F700C0000027960FB6F894DEBF9D
S11304700FBECDBFDF91CF911F910F91FF90EF90F1
S1130480DF90CF90BF900895BF92CF92DF92EF920A
S1130490FF920F931F93CF93DF93CDB7DEB72797C8
S11304A00FB6F894DEBF0FBECDBF29833A834B83CA
S11304B05C836D837E838F83E12CF12CB12CCC245F
S11304C0C394D12C85E08A95F1F7000009811A8143
S11304D02B813C814D815E816F8180E00E94BB0055
S11304E08AE08A95F1F700C009811A812B813C8149
S11304F04D815E816F8181E00E94BB008AE18A9513
S1130500F1F700C09AB19C609AB95A9A29813A814C
S11305104B815C816D817E818F810E940A01892BD0
S113052049F0C6010E2C02C0880F991F0A94E2F705
S1130530B82A5B9A80E18A95F1F79BB1937F9BB9C6
S113054080EF8A95F1F78FEFE81AF80A88E0E81649
S1130550F10409F0B7CF8B2D27960FB6F894DEBFC0
S11305600FBECDBFDF91CF911F910F91FF90EF9000
S1130570DF90CF90BF900895CF93C82F8A3019F49D
S11305808DE00E94BC02E0ECF0E0908195FFFDCF8D
S1130590C093C60080E090E0CF9108958091C000A0
S11305A088231CF48091C600089580E008950E9479
S11305B0CE028823E1F308950F931F93CF93DF9323
S11305C0CDB7DEB727970FB6F894DEBF0FBECDBF09
S11305D029833A834B835C836D837E838F8385E099
S11305E08A95F1F7000009811A812B813C814D81A4
S11305F05E816F8180E00E94BB0085E38A95F1F7FC
S1130600000009811A812B813C814D815E816F81BB
S113061081E00E94BB0085E18A95F1F700008AB170
S11306208C608AB920916406309165064091660613
S113063050916706609168067091690680916A0618
S11306400E940A01892B19F05B9A81E001C080E0C5
S113065027960FB6F894DEBF0FBECDBFDF91CF91C2
S11306601F910F910895CF93DF93CDB7DEB76B97AA
S11306700FB6F894DEBF0FBECDBFE4E6F6E08BE222
S113068090E09183808389E290E0938382838AE27D
S113069090E09583848387E086833D9A5098519AAD
S11306A01092C50087E68093C40088E18093C1005E
S11306B080E091E090936E0680936D06459A0091D8
S11306C06406109165062091660630916706409194
S11306D068065091690660916A0681E00E94BB0039
S11306E08EE091E00E94F40B8AE090E00E94ED0B12
S11306F082E291E00E94F40BE12CF12C212C312CAC
S1130700CE0101969C8B8B8B4E019AE0890E911C35
S1130710AB89A88FBC89B98F0F2EFBEFCF2EF2E0E7
S1130720DF2EF02D0F2EF0E04F2EF3E05F2EF02D94
S1130730FE013B96FE8BED8B3E01F3E16F0E711CC7
S11307402D892A8F8E898B8F570181E00E94D702D1
S11307509FEFA91AB90A90E0FC013D97E836F1052C
S1130760A0F7EC5CFF4F0C94D10B8AE090E00E9460
S1130770ED0B8AE291E00E94F40B85E391E00E9484
S1130780F40B80E491E00E94F40B1F9283E38F93B7
S11307908EE491E09F938F930E94D70B3F922F9208
S11307A084E691E09F938F930E94D70B8CE891E0AD
S11307B00E94F40B84ED91E00E94F40B8AEE91E028
S11307C00E94F40B1F9215E51F9387EF91E09F930E
S11307D08F930E94D70B1F921F9387E292E09F93FF
S11307E08F930E94D70B1F928CEC8F9387E592E036
S11307F09F938F930E94D70B1F9284E48F938DE66F
S113080092E09F938F930E94D70B1F928EEB8F934E
S113081081E992E09F938F930E94D70B0FB6F894CF
S1130820DEBF0FBECDBF91CF1F9283E38F93BF92E4
S1130830AF9280ED92E09F938F930E94D70B86EE48
S113084092E09F938F930E94D70B009164061091BE
S113085065062091660630916706409168065091BE
S1130860690660916A0683E30E94F801FE013B96E3
S11308707F010FB6F894DEBF0FBECDBF0A8D1B8D6E
S11308802091640630916506409166065091670692
S1130890609168067091690680916A060E9444021C
S11308A0D8018D938D01A615B70551F7F7018191F4
S11308B07F011F928F93DF92CF920E94D70B0F90EC
S11308C00F900F900F906E147F0481F78AE090E0F0
S11308D00E94ED0B3ACF00916406109165062091B9
S11308E066063091670640916806509169066091EA
S11308F06A0680E00E94990180E390E00E94ED0B7B
S113090024CF00916406109165062091660630910B
S11309106706409168065091690660916A0681E015
S11309200E94990181E390E00E94ED0B0ECF8AE0D2
S113093090E00E94ED0B09CF80E290E00E94ED0B65
S113094004CF8AE090E00E94ED0BFFCE2091640674
S1130950309165064091660650916706609168067D
S11309607091690680916A060E9444021F928F93D7
S113097088EF92E09F938F930E94D70B0F900F9074
S11309800F900F90E2CE209164063091650640915D
S113099066065091670660916806709169068091B9
S11309A06A060E94DC021F928F935F924F920E940C
S11309B0D70B0F900F900F900F90C7CE1F9284E427
S11309C08F93BF92AF9283E093E09F938F930E94A3
S11309D0D70B00916406109165062091660630914C
S11309E06706409168065091690660916A0684E43E
S11309F00E94F801209164063091650640916606D4
S1130A0050916706609168067091690680916A0644
S1130A100E94DC0211E00F900F900F900F900F9046
S1130A200F90882319F010E001C01F5F2091640625
S1130A30309165064091660650916706609168069C
S1130A407091690680916A060E94DC02882369F32A
S1130A50112369F01F921F938AE193E09F938F9370
S1130A600E94D70B0F900F900F900F906ECE80E5E1
S1130A7093E00E94F40B69CE1F9284E48F93BF929B
S1130A80AF928AE793E09F938F930E94D70B0091D4
S1130A9064061091650620916606309167064091C0
S1130AA068065091690660916A0684E40E94F80120
S1130AB082EC93E00E94F40BFFEF23ED80E3F1500E
S1130AC020408040E1F700C000008EED93E00E94DA
S1130AD0F40B0F900F900F900F900F900F9035CE56
S1130AE0BF92AF9281E094E09F938F930E94D70BC3
S1130AF02091640630916506409166065091670620
S1130B00609168067091690680916A060E943E01B0
S1130B100F900F900F900F90882329F08CE194E0B0
S1130B200E94F40B12CE2114310409F40ECE87E393
S1130B3094E00E94F40B09CE81E0232809F080E0C0
S1130B40282E312C1F928F9384E594E09F938F93EA
S1130B500E94D70B0F900F900F900F90F6CD1F921D
S1130B608CEC8F93BF92AF9280E694E09F938F9327
S1130B700E94D70B009164061091650620916606C9
S1130B8030916706409168065091690660916A0643
S1130B908CEC0E94F8010F900F900F900F900F9023
S1130BA00F90D3CD1F9285E58F93BF92AF9286E7C6
S1130BB094E09F938F930E94D70B00916406109149
S1130BC0650620916606309167064091680650914B
S1130BD0690660916A0685E50E94F8010091640641
S1130BE0109165062091660630916706409168066B
S1130BF05091690660916A0688E20E94F8010091AA
S1130C00640610916506209166063091670640914E
S1130C1068065091690660916A0686E20E94F801AE
S1130C20009164061091650620916606309167066E
S1130C30409168065091690660916A068EE60E94AA
S1130C40F8010091640610916506209166063091C2
S1130C506706409168065091690660916A0685E0CE
S1130C600E94F801009164061091650620916606C1
S1130C7030916706409168065091690660916A0652
S1130C8085E00E94F80100916406109165062091A8
S1130C906606309167064091680650916906609136
S1130CA06A0680E00E94F8010091640610916506CE
S1130CB02091660630916706409168065091690656
S1130CC060916A0680E00E94F80100916406109128
S1130CD0650620916606309167064091680650913A
S1130CE0690660916A068DE10E94F80187EA94E042
S1130CF00E94F40B0F900F900F900F900F900F9095
S1130D0024CD1F9285E58F93BF92AF9287EC94E038
S1130D109F938F930E94D70B0091640610916506F0
S1130D2020916606309167064091680650916906E5
S1130D3060916A0685E50E94F801009164061091AD
S1130D4065062091660630916706409168065091C9
S1130D50690660916A0688E20E94F80100916406BF
S1130D6010916506209166063091670640916806E9
S1130D705091690660916A0684E10E94F80100912D
S1130D8064061091650620916606309167064091CD
S1130D9068065091690660916A0687EB0E94F80123
S1130DA000916406109165062091660630916706ED
S1130DB0409168065091690660916A0685E00E9438
S1130DC0F801009164061091650620916606309141
S1130DD06706409168065091690660916A0685E04D
S1130DE00E94F80100916406109165062091660640
S1130DF030916706409168065091690660916A06D1
S1130E0080E00E94F801009164061091650620912B
S1130E1066063091670640916806509169066091B4
S1130E206A0680E00E94F80100916406109165064C
S1130E3020916606309167064091680650916906D4
S1130E4060916A0683E30E94F80187EA94E00E94B5
S1130E50F40B0F900F900F900F900F900F9075CC94
S1130E601F9285E58F93BF92AF9288EF94E09F9392
S1130E708F930E94D70B0091640610916506209110
S1130E806606309167064091680650916906609144
S1130E906A0685E50E94F8010091640610916506D2
S1130EA02091660630916706409168065091690664
S1130EB060916A0688E20E94F8010091640610912C
S1130EC06506209166063091670640916806509148
S1130ED0690660916A0682EA0E94F801009164063C
S1130EE01091650620916606309167064091680668
S1130EF05091690660916A0683E60E94F8010091A8
S1130F00640610916506209166063091670640914B
S1130F1068065091690660916A0685E00E94F801AE
S1130F20009164061091650620916606309167066B
S1130F30409168065091690660916A0685E00E94B6
S1130F40F8010091640610916506209166063091BF
S1130F506706409168065091690660916A0680E0D0
S1130F600E94F801009164061091650620916606BE
S1130F7030916706409168065091690660916A064F
S1130F8080E00E94F80100916406109165062091AA
S1130F906606309167064091680650916906609133
S1130FA06A0687EC0E94F80187EA94E00E94F40B39
S1130FB00F900F900F900F900F900F90C6CB1F9231
S1130FC085E58F93BF92AF9289E295E09F938F93CB
S1130FD00E94D70B00916406109165062091660665
S1130FE030916706409168065091690660916A06DF
S1130FF085E50E94F8010091640610916506209130
S113100066063091670640916806509169066091C2
S11310106A0688E20E94F801009164061091650650
S113102020916606309167064091680650916906E2
S113103060916A0689E40E94F801009164061091A7
S113104065062091660630916706409168065091C6
S1131050690660916A0680E40E94F80100916406C2
S113106010916506209166063091670640916806E6
S11310705091690660916A0685E00E94F80100912A
S113108064061091650620916606309167064091CA
S113109068065091690660916A0685E00E94F8012D
S11310A000916406109165062091660630916706EA
S11310B0409168065091690660916A0680E00E943A
S11310C0F80100916406109165062091660630913E
S11310D06706409168065091690660916A0680E04F
S11310E00E94F8010091640610916506209166063D
S11310F030916706409168065091690660916A06CE
S113110080EA0E94F80187EA94E00E94F40B0F90B1
S11311100F900F900F900F900F9017CB1F9285E5B3
S11311208F93BF92AF9286E595E09F938F930E9431
S1131130D70B0091640610916506209166063091E4
S11311406706409168065091690660916A0685E5D4
S11311500E94F801009164061091650620916606CC
S113116030916706409168065091690660916A065D
S113117088E20E94F80100916406109165062091AE
S11311806606309167064091680650916906609141
S11311906A0685EF0E94F8010091640610916506C5
S11311A02091660630916706409168065091690661
S11311B060916A068CE90E94F8010091640610911E
S11311C06506209166063091670640916806509145
S11311D0690660916A0685E00E94F8010091640640
S11311E01091650620916606309167064091680665
S11311F05091690660916A0685E00E94F8010091A9
S11312006406109165062091660630916706409148
S113121068065091690660916A0680E00E94F801B0
S11312200091640610916506209166063091670668
S1131230409168065091690660916A0680E00E94B8
S1131240F8010091640610916506209166063091BC
S11312506706409168065091690660916A0685EABE
S11312600E94F80187EA94E00E94F40B0F900F901B
S11312700F900F900F900F9068CA1F9285E58F937F
S1131280BF92AF9285E895E09F938F930E94D70B0E
S113129000916406109165062091660630916706F8
S11312A0409168065091690660916A0685E50E943E
S11312B0F80100916406109165062091660630914C
S11312C06706409168065091690660916A0688E253
S11312D00E94F8010091640610916506209166064B
S11312E030916706409168065091690660916A06DC
S11312F085E40E94F801009164061091650620912E
S113130066063091670640916806509169066091BF
S11313106A0685E30E94F80100916406109165064F
S113132020916606309167064091680650916906DF
S113133060916A0686E00E94F801009164061091AB
S113134065062091660630916706409168065091C3
S1131350690660916A0685E00E94F80100916406BE
S113136010916506209166063091670640916806E3
S11313705091690660916A0680E00E94F80100912C
S113138064061091650620916606309167064091C7
S113139068065091690660916A0680E00E94F8012F
S11313A000916406109165062091660630916706E7
S11313B0409168065091690660916A068AEE0E941F
S11313C0F80187EA94E00E94F40B0F900F900F90BD
S11313D00F900F900F90B9C91F9280EF8F9386EBF7
S11313E095E09F938F930E94D70B00916406109110
S11313F06506209166063091670640916806509113
S1131400690660916A0680EF0E94F8010F900F90C0
S11314100F900F909AC91F928EEB8F93BF92AF9249
S1131420AAECB5E0BF93AF930E94D70B009164067A
S11314301091650620916606309167064091680612
S11314405091690660916A068EEB0E94F801A7EE3E
S1131450B5E0BF93AF930E94D70BCE0101967C01F8
S11314600FB6F894DEBF0FBECDBF088D198D209145
S11314706406309165064091660650916706609156
S113148068067091690680916A060E944402F80118
S113149081938F01E815F90551F7D7018D917D01ED
S11314A01F928F93DF92CF920E94D70B0F900F90D1
S11314B00F900F90E814F90481F78AE090E00E94FD
S11314C0ED0BBA81BF8B8981E82EF12C1F92BF935B
S11314D01F928F93ACEFB5E0BF93AF930E94D70BED
S11314E08B811F928F9385E196E09F938F930E9447
S11314F0D70B8C811F928F9381E296E09F938F93F9
S11315000E94D70B8DE296E09F938F930E94D70B96
S11315100FB6F894DEBF0FBECDBF08E010E08D819A
S1131520881F8827881F1F928F935F924F920E9473
S1131530D70B8D81880F8D83015011090F900F9067
S11315400F900F9061F78AE090E00E94ED0B89857F
S11315501F928F9387E396E09F938F930E94D70BFC
S11315608F89877090E0982F8827E80EF91EB701BD
S11315700F2C000C880B990B0E94D80A20E030E055
S113158040E85DE30E94130B9F938F937F936F93C7
S1131590FF92EF9284E496E09F938F930E94D70B7F
S11315A00FB6F894DEBF0FBECDBFCFC8E89409C014
S11315B097FB3EF490958095709561957F4F8F4F82
S11315C09F4F9923A9F0F92F96E9BB279395F69598
S11315D0879577956795B795F111F8CFFAF4BB0F16
S11315E011F460FF1BC06F5F7F4F8F4F9F4F16C07A
S11315F0882311F096E911C0772321F09EE8872F04
S1131600762F05C0662371F096E8862F70E060E0BF
S11316102AF09A95660F771F881FDAF7880F969538
S1131620879597F908950E94260B0C94970B0E94B6
S1131630890B38F00E94900B20F0952311F00C9444
S1131640800B0C94860B11240C94CB0B0E94A80BDA
S113165070F3959FC1F3950F50E0551F629FF00101
S1131660729FBB27F00DB11D639FAA27F00DB11D1A
S1131670AA1F649F6627B00DA11D661F829F2227A3
S1131680B00DA11D621F739FB00DA11D621F839F2A
S1131690A00D611D221F749F3327A00D611D231F00
S11316A0849F600D211D822F762F6A2F11249F574E
S11316B050409AF0F1F088234AF0EE0FFF1FBB1F51
S11316C0661F771F881F91505040A9F79E3F510510
S11316D080F00C94800B0C94CB0B5F3FE4F3983EAA
S11316E0D4F3869577956795B795F795E7959F5FBA
S11316F0C1F7FE2B880F911D9695879597F908954C
S113170097F99F6780E870E060E008959FEF80ECB0
S1131710089500240A941616170618060906089553
S113172000240A9412161306140605060895092EB9
S11317300394000C11F4882352F0BB0F40F4BF2B28
S113174011F460FF04C06F5F7F4F8F4F9F4F089568
S113175057FD9058440F551F59F05F3F71F047955E
S1131760880F97FB991F61F09F3F79F08795089543
S1131770121613061406551FF2CF4695F1DF08C062
S1131780161617061806991FF1CF8695710561057F
S113179008940895E894BB2766277727CB0197F927
S11317A00895EE0FFF1F0590F491E02D0994A0E039
S11317B0B0E0EDEDFBE00C94B20EAE014B5F5F4F79
S11317C0FA0161917191AF0180916D0690916E065D
S11317D00E94240CE2E00C94CE0E60916D06709190
S11317E06E060E940C0E08950F931F93CF93DF9300
S11317F0E0916D06F0916E06238121FF1BC08C01E0
S1131800D0E0C0E0F80181918F0160916D06709184
S11318106E06DB011896ED91FC911997882331F03F
S11318200995892B79F3DFEFCFEFECCF8AE00995A7
S1131830892B19F08FEF9FEF02C08D2F9C2FDF9122
S1131840CF911F910F910895ACE0B0E0EAE2FCE083
S11318500C94A20E7C016B018A01FC011782168292
S1131860838181FFBDC1CE0101964C01F7019381B3
S1131870F60193FD859193FF81916F01882309F40B
S1131880ABC1853239F493FD859193FF81916F014A
S1131890853229F4B70190E00E940C0EE7CF512C59
S11318A0312C20E02032A0F48B3269F030F4803205
S11318B059F0833269F420612CC08D3239F08033C1
S11318C039F4216026C02260246023C0286021C02E
S11318D027FD27C030ED380F3A3078F426FF06C0D4
S11318E0FAE05F9E300D1124532E13C08AE0389E17
S11318F0300D1124332E20620CC08E3221F426FDCB
S11319006BC1206406C08C3611F4206802C088368E
S113191041F4F60193FD859193FF81916F0181114B
S1131920C1CF982F9F7D9554933028F40C5F1F4F9F
S1131930FFE3F9830DC0833631F0833771F08335CB
S113194009F05BC022C0F801808189830E5F1F4FBC
S113195044244394512C540115C03801F2E06F0E15
S1131960711CF801A080B18026FF03C0652D70E0D2
S113197002C06FEF7FEFC5012C870E94010E2C017E
S113198083012C852F77222E17C03801F2E06F0EC9
S1131990711CF801A080B18026FF03C0652D70E0A2
S11319A002C06FEF7FEFC5012C870E94F60D2C015A
S11319B02C852068222E830123FC1BC0832D90E0FC
S11319C048165906B0F4B70180E290E00E940C0E6C
S11319D03A94F4CFF50127FC859127FE81915F01AC
S11319E0B70190E00E940C0E31103A94F1E04F1AC6
S11319F051084114510471F7E5C0843611F0893659
S1131A0039F5F80127FF07C06081718182819381D4
S1131A100C5F1F4F08C060817181072E000C880B7A
S1131A20990B0E5F1F4F2F76722E97FF09C090956A
S1131A308095709561957F4F8F4F9F4F2068722ED0
S1131A402AE030E0A4010E94440EA82EA81844C045
S1131A50853729F42F7EB22E2AE030E025C0F22FFC
S1131A60F97FBF2E8F36C1F018F4883579F0B4C0F1
S1131A70803719F0883721F0AFC02F2F2061B22EA4
S1131A80B4FE0DC08B2D8460B82E09C024FF0AC09B
S1131A909F2F9660B92E06C028E030E005C020E1F3
S1131AA030E002C020E132E0F801B7FE07C06081F7
S1131AB07181828193810C5F1F4F06C060817181A7
S1131AC080E090E00E5F1F4FA4010E94440EA82EF8
S1131AD0A818FB2DFF777F2E76FE0BC0372D3E7F97
S1131AE0A51450F474FE0AC072FC08C0372D3E7E63
S1131AF005C0BA2C372D03C0BA2C01C0B52C34FF55
S1131B000DC0FE01EA0DF11D8081803311F4397E90
S1131B1009C032FF06C0B394B39404C0832F8678FF
S1131B2009F0B39433FD13C030FF06C05A2CB3142C
S1131B3018F4530C5B18B32CB31468F4B70180E2A7
S1131B4090E03C870E940C0EB3943C85F5CFB3140F
S1131B5010F43B1801C0312C34FF12C0B70180E3EC
S1131B6090E03C870E940C0E3C8532FF17C031FD8B
S1131B7003C088E790E002C088E590E0B7010CC09C
S1131B80832F867859F031FF02C08BE201C080E2D6
S1131B9037FD8DE2B70190E00E940C0EA51438F4D5
S1131BA0B70180E390E00E940C0E5A94F7CFAA94F8
S1131BB0F401EA0DF11D8081B70190E00E940C0E42
S1131BC0A110F5CF332009F451CEB70180E290E0A3
S1131BD00E940C0E3A94F6CFF7018681978102C0D9
S1131BE08FEF9FEF2C96E2E10C94BE0EFC01059062
S1131BF0615070400110D8F7809590958E0F9F1F0B
S1131C000895FC016150704001900110D8F780954F
S1131C1090958E0F9F1F08950F931F93CF93DF937B
S1131C20FB01238121FD03C08FEF9FEF28C022FF1A
S1131C3016C046815781248135814217530744F4E5
S1131C40A081B1819D012F5F3F4F318320838C930D
S1131C50268137812F5F3F4F3783268310C0EB01E6
S1131C60092F182F0084F185E02D0995892BE1F6C1
S1131C708E819F8101969F838E83812F902FDF9188
S1131C80CF911F910F910895FA01AA27283051F19D
S1131C90203181F1E8946F936E7F6E5F7F4F8F4F99
S1131CA09F4FAF4FB1E03ED0B4E03CD0670F781FF8
S1131CB0891F9A1FA11D680F791F8A1F911DA11DDD
S1131CC06A0F711D811D911DA11D20D009F4689416
S1131CD03F912AE0269F11243019305D3193DEF6BE
S1131CE0CF010895462F4770405D4193B3E00FD074
S1131CF0C9F7F6CF462F4F70405D4A3318F0495D5F
S1131D0031FD4052419302D0A9F7EACFB4E0A69541
S1131D109795879577956795BA95C9F70097610563
S1131D20710508959B01AC010A2E069457954795B9
S1131D3037952795BA95C9F7620F731F841F951FAE
S1131D40A01D08952F923F924F925F926F927F92BF
S1131D508F929F92AF92BF92CF92DF92EF92FF92B7
S1131D600F931F93CF93DF93CDB7DEB7CA1BDB0B63
S1131D700FB6F894DEBF0FBECDBF09942A88398808
S1131D8048885F846E847D848C849B84AA84B9840F
S1131D90C884DF80EE80FD800C811B81AA81B9811B
S1131DA0CE0FD11D0FB6F894DEBF0FBECDBFED012F
S1091DB00895F894FFCF32
S1131DB60000000200000000BC02000000000A0A45
S1131DC67374617274696E6720616E6577202E2E56
S1131DD62E00683A2068656C7000303A2077726984
S1131DE67465203000313A207772697465203100B9
S1131DF6623A207265616420312062697400613A36
S1131E0620524541445F524F4D20283078253032C8
S1131E1678290A00643A20746F67676C65206465E4
S1131E266275672C2063757272656E746C792064B2
S1131E36656275672069733A25750A00653A2074E8
S1131E46656D706572617475726520636F6E766513
S1131E567273696F6E20776974686F757420726522
S1131E666164696E67207468652073746174757340
S1131E7620666F7220706172617369746520706F79
S1131E8677657200693A20696E697469616C697A6A
S1131E9665202872657365742900683A2074686938
S1131EA6732068656C70006D3A204D415443485F59
S1131EB6524F4D20666F72206465766963652032E1
S1131EC6382E343934303035303561302028307886
S1131ED625303278290A006C3A204D415443485F34
S1131EE6524F4D20666F72206465766963652032B1
S1131EF6382E6635633930353035613520283078EB
S1131F0625303278290A00733A20534B49505F52E0
S1131F164F4D2028307825303278290A00633A203C
S1131F26434F4E564552545F54202830782530325C
S1131F36782920616E64207761697420316D730A93
S1131F4600743A20524541445F5343524154434836
S1131F56504144202830782530327829202C2052CC
S1131F6645414420322062797465732C207072696D
S1131F766E742074656D70657261747572650A009D
S1131F8625753A20524541445F524F4D3A203078E8
S1131F96253032780A0072656164696E672061646F
S1131FA664726573733A20002030782530327800E5
S1131FB625780025753A20434F4E564552545F54B2
S1131FC63A203078253032780A00546865207465E2
S1131FD66D706572617475726520636F6E76657275
S1131FE673696F6E20636F6D706C657465642061D0
S1131FF666746572202575206C6F6F70732E0A00E7
S11320065468652074656D706572617475726520B7
S1132016636F6E76657273696F6E206E6576657230
S11320262073746172746564210025753A20434FE8
S11320364E564552545F543A203078253032782033
S1132046776974686F75742072656164696E672058
S11320567374617475732028676F6F6420666F727A
S113206620706172617369746520706F7765722977
S11320760A0074686520636F6E76657273696F6EA5
S11320862077617320737461727465642E007468BA
S11320966520636F6E76657273696F6E2053484F61
S11320A6554C4420626520646F6E65206E6F772EF2
S11320B60025753A2072657365742F7072657365B1
S11320C66E6365206465746563740A0020202020AD
S11320D6202D3E2073656E736F7220696E697420BD
S11320E66661696C656400202020202D3E2073659E
S11320F66E736F7220696E697420737563636565A8
S1132106646564006465627567203D2025750A0070
S113211625753A20534B49505F524F4D3A2030783B
S1132126253032780A0025753A204D415443485FDC
S1132136524F4D206465766963652032382E3236F7
S1132146366530353035303030303164203A203021
S113215678253032780A0074686520524F4D206421
S113216661746120686173206265656E20737562AF
S11321766D69747465640025753A204D415443486D
S11321865F524F4D206465766963652032382E317F
S113219634623730353035303030303333203A20FE
S11321A63078253032780A0025753A204D4154435B
S11321B6485F524F4D206465766963652032382E38
S11321C66132363330353035303030306337203A8B
S11321D6203078253032780A0025753A204D41544E
S11321E643485F524F4D20646576696365203238F3
S11321F62E34393430303530353030203A2030788A
S1132206253032780A0025753A204D415443485FFB
S1132216524F4D206465766963652032382E6635E3
S113222639633035303530306135203A2030782501
S11322363032780A0025753A204D415443485F529E
S11322464F4D206465766963652032382E34353304
S11322563530363035303030306561203A203078CC
S1132266253032780A005345415243485F524F4D58
S11322763A203078253032780A0025753A205245BE
S113228641445F534352415443485041443A2030F9
S113229678253032780A0072656164696E67207346
S11322A66372617463687061643A200074656D706A
S11322B6657261747572653A2030782530327825F6
S11322C63032780A0054683A203078253032780A59
S11322D600546C3A203078253032780A00636F6EE9
S11322E6666967203A20004552433A203078253003
S11322F632780A0074656D70657261747572652052
S1132306307825303478203D2025362E3366204318
S10523160A00B7
S9030000FC
