S0120000534C5F445331384232302E7372656370
S11300000C949C000C94B9000C94B9000C94B900A5
S11300100C94B9000C94B9000C94B9000C94B90078
S11300200C94B9000C94B9000C94B9000C94B90068
S11300300C94B9000C94B9000C94B9000C94B90058
S11300400C94B9000C94B9000C94B9000C94B90048
S11300500C94B9000C94B9000C94B9000C94B90038
S11300600C94B9000C94B9004E052D042D042D04F4
S11300702D042D042D042D042D042D042D042D04F4
S11300802D042D042D042D042D042D042D044905C7
S11300902D042D042D042D042D042D042D042D04D4
S11300A02D042D042D042D042D042D042D041805D8
S11300B02E052D042D042D042D042D047F062E075A
S11300C0DD072D042D042D042D042D042D042D04F1
S11300D02D0453052D042D042D042D042D042D046D
S11300E02D042D042D042D042D042D042D042D0484
S11300F02D042D042D042D042D042D042D042D0474
S11301002D042D042D042D042D042D042D042D0463
S1130110C10470058B054906E9052D042D043D0431
S11301201D062D04EA093B098C0844052D042D0401
S1130130990A2D045C06B80A11241FBECFEFD8E03B
S1130140DEBFCDBF17E0A0E0B1E0E0E1FFE102C017
S113015005900D92A635B107D9F727E0A6E5B7E0DB
S113016001C01D92A536B207E1F70E946B030C94FF
S1130170860F0C9400000F931F93CF93DF93CDB79A
S1130180DEB727970FB6F894DEBF0FBECDBF098345
S11301901A832B833C834D835E836F83E981FA81C9
S11301A0AD81BE818823B1F03C9181E090E002C032
S11301B0880F991F6A95E2F7982F909593239C9343
S11301C09081892B80838C918F7B8C938081806438
S11301D0808315C03C9181E090E002C0880F991F94
S11301E06A95E2F7932F982B9C93908180958923AD
S11301F080838C9180648C9380818F7B808327960D
S11302000FB6F894DEBF0FBECDBFDF91CF911F9123
S11302100F910895CF93DF93CDB7DEB727970FB62D
S1130220F894DEBF0FBECDBF29833A834B835C8332
S11302306D837E838F83ED81FE81808121E030E0B8
S11302400F8002C0220F331F0A94E2F7922F909579
S113025089238083E981FA818081822B8083EB81E9
S1130260FC81808190E08223932327960FB6F89433
S1130270DEBF0FBECDBFDF91CF9108950F931F93C3
S1130280CF93DF93CDB7DEB727970FB6F894DEBFD1
S11302900FBECDBF022F2983132F3A83242F4B8304
S11302A0352F5C83462F6D83572F7E83682F8F8372
S11302B080E00E94BB008FEA94E00197F1F700C050
S11302C0000009811A812B813C814D815E816F81FF
S11302D081E00E94BB0087EC90E00197F1F700C039
S11302E00000529A5A9A29813A814B815C816D812E
S11302F07E818F810E940A01282F9BB1987F9BB930
S113030092E09A95F1F700C085EE93E00197F1F73A
S113031000C0000081E0211101C080E027960FB6E3
S1130320F894DEBF0FBECDBFDF91CF911F910F9127
S113033008950F931F93CF93DF93CDB7DEB727971D
S11303400FB6F894DEBF0FBECDBF09831A832B838B
S11303503C834D835E836F83E7ECF0E03197F1F7E4
S113036000C000008823E9F009811A812B813C81B7
S11303704D815E816F8180E00E94BB00FAE1FA95B5
S1130380F1F700C009811A812B813C814D815E8186
S11303906F8181E00E94BB0085E88A95F1F7000037
S11303A00DC009811A812B813C814D815E816F8151
S11303B080E00E94BB00E0EAEA95F1F709811A8126
S11303C02B813C814D815E816F8181E00E94BB0065
S11303D027960FB6F894DEBF0FBECDBFDF91CF9145
S11303E01F910F910895BF92CF92DF92EF92FF92E7
S11303F00F931F93CF93DF93CDB7DEB727970FB635
S1130400F894DEBF0FBECDBFB82E09831A832B83A9
S11304103C834D835E836F83E12CF12CCC24C39405
S1130420D12CC6010E2C02C0880F991F0A94E2F742
S113043009811A812B813C814D815E816F818B21E1
S11304400E9499018FEFE81AF80A98E0E916F1047E
S113045041F787EE93E00197F1F700C0000027967B
S11304600FB6F894DEBF0FBECDBFDF91CF911F91C1
S11304700F91FF90EF90DF90CF90BF900895BF92BF
S1130480CF92DF92EF92FF920F931F93CF93DF935C
S1130490CDB7DEB727970FB6F894DEBF0FBECDBF3A
S11304A029833A834B835C836D837E838F83E12C22
S11304B0F12CB12CCC24C394D12C82E08A95F1F791
S11304C000C009811A812B813C814D815E816F813D
S11304D080E00E94BB0085E08A95F1F70000098165
S11304E01A812B813C814D815E816F8181E00E9464
S11304F0BB0082E08A95F1F700C09AB19C609AB97A
S11305005A9AEB81FC81908196010F8002C0220FE0
S1130510331F0A94E2F7292349F05B9AC6010E2C93
S113052002C0880F991F0A94E2F7B82A88E08A95D6
S1130530F1F79BB1937F9BB988E78A95F1F78FEF29
S1130540E81AF80A88E0E816F10409F0B6CF8B2D12
S113055027960FB6F894DEBF0FBECDBFDF91CF91C3
S11305601F910F91FF90EF90DF90CF90BF9008956F
S1130570CF93C82F8A3019F48DE00E94B802E0ECC2
S1130580F0E0908195FFFDCFC093C60080E090E03D
S1130590CF9108958091C00088231CF48091C600F7
S11305A0089580E008950E94CA028823E1F3089523
S11305B00F931F93CF93DF93CDB7DEB727970FB673
S11305C0F894DEBF0FBECDBF922F2983132F3A8339
S11305D0242F4B83352F5C83462F6D83572F7E83C7
S11305E0682F8F83802F092F0E94BB0082E08A9599
S11305F0F1F700C009811A812B813C814D815E8114
S11306006F8181E00E94BB0082E08A95F1F700C00F
S113061027960FB6F894DEBF0FBECDBFDF91CF9102
S11306201F910F9108950F931F93CF93DF93CDB72D
S1130630DEB727970FB6F894DEBF0FBECDBF298370
S11306403A834B835C836D837E838F8382E08A95B8
S1130650F1F700C009811A812B813C814D815E81B3
S11306606F8180E00E94BB0095E09A95F1F700004D
S113067009811A812B813C814D815E816F8181E0EA
S11306800E94BB0082E08A95F1F700C08AB18C60B9
S11306908AB9EB81FC81208181E090E00F8002C067
S11306A0880F991F0A94E2F782235A9A19F05B9AE9
S11306B081E001C080E092E09A95F1F700C05B9878
S11306C027960FB6F894DEBF0FBECDBFDF91CF9152
S11306D01F910F910895CF93DF93CDB7DEB76B973A
S11306E00FB6F894DEBF0FBECDBFE8E5F7E08BE2AE
S11306F090E09183808389E290E0938382838AE20D
S113070090E09583848387E086833D9A5098519A3C
S11307101092C50083E38093C40088E18093C100F4
S113072080E091E09093620780936107459A00917D
S113073058071091590720915A0730915B0740914F
S11307405C0750915D0760915E0781E00E94BB00E9
S11307508EE091E00E94A10CC12CD12C612C712C53
S1130760AA24A394B12C862C972C2FEFC21AD20A58
S1130770062D172D209158073091590740915A079B
S113078050915B0760915C0770915D0780915E07F3
S11307900E94D802E62CF72C0A2D1B2DC6010E2C24
S11307A002C0959587950A94E2F780FF02C0082D50
S11307B0192D209158073091590740915A075091AB
S11307C05B0760915C0770915D0780915E070E94F2
S11307D0D8028FEFE81AF80A98E0E916F104E1F676
S11307E082E291E00E94A10C80E00E94D302813752
S11307F019F0843609F0B9CF8AE090E00E949A0C8F
S11308008EE391E00E94A10CE12CF12C212C312CDF
S1130810DE011196BC8BAB8B4E01BAE08B0E911CA2
S1130820EB89E88FFC89F98F0F2EFFEECF2EF3E0D2
S1130830DF2EF02D0F2EF4EF4F2EF3E05F2EF02D70
S1130840CE010B969E8B8D8B3E0193E1690E711C3C
S1130850AD89AA8FBE89BB8F570181E00E94D30264
S1130860EFEFAE1ABE0A90E0FC013D97E836F105C1
S1130870A0F7EC5CFF4F0C947E0C8AE090E00E94A1
S11308809A0C86E491E00E94A10C81E591E00E941B
S1130890A10C8CE591E00E94A10C1F9283E38F933D
S11308A08AE691E09F938F930E94840C3F922F924B
S11308B080E891E09F938F930E94840C88EA91E0F2
S11308C00E94A10C80EF91E00E94A10C86E092E0CE
S11308D00E94A10C1F9215E51F9383E192E09F9360
S11308E08F930E94840C1F921F9387E492E09F933E
S11308F08F930E94840C1F921F938BE792E09F9327
S11309008F930E94840C1F921F938FEA92E09F930F
S11309108F930E94840C1F921F9383EE92E09F9307
S11309208F930E94840C1F921F9387E193E09F93FF
S11309308F930E94840C0FB6F894DEBF0FBECDBF18
S11309401F928CEC8F938BE493E09F938F930E9480
S1130950840C1F9284E48F9381E693E09F938F939A
S11309600E94840C1F928EEB8F9385E893E09F93F3
S11309708F930E94840C0FB6F894DEBF0FBECDBFD8
S11309806CCF1F9283E38F93BF92AF9284EC93E07A
S11309909F938F930E94840C8AED93E09F938F938F
S11309A00E94840C009158071091590720915A070E
S11309B030915B0740915C0750915D0760915E0741
S11309C083E30E94F301FE013B967F010FB6F89486
S11309D0DEBF0FBECDBF0A8D1B8D2091580730910D
S11309E0590740915A0750915B0760915C077091D9
S11309F05D0780915E070E943F02D8018D938D01AF
S1130A00A615B70551F7F70181917F011F928F93C6
S1130A10DF92CF920E94840C0F900F900F900F9052
S1130A206E147F0481F78AE090E00E949A0C15CF3F
S1130A30009158071091590720915A0730915B078C
S1130A4040915C0750915D0760915E0780E00E94D1
S1130A50990180E390E00E949A0CFFCE0091580720
S1130A601091590720915A0730915B0740915C0718
S1130A7050915D0760915E0781E00E94990181E3D6
S1130A8090E00E949A0CE9CE8AE090E00E949A0CD1
S1130A90E4CE80E290E00E949A0CDFCE8AE090E0FF
S1130AA00E949A0CDACE2091580730915907409150
S1130AB05A0750915B0760915C0770915D078091C4
S1130AC05E070E943F021F928F938CEE93E09F93E8
S1130AD08F930E94840C0F900F900F900F90BDCEB7
S1130AE0209158073091590740915A0750915B075C
S1130AF060915C0770915D0780915E070E9413030B
S1130B001F928F935F924F920E94840C0F900F90CC
S1130B100F900F90A2CE1F9284E48F93BF92AF9256
S1130B2087EF93E09F938F930E94840C0091580762
S1130B301091590720915A0730915B0740915C0747
S1130B4050915D0760915E0784E40E94F301209157
S1130B5058073091590740915A0750915B076091AB
S1130B605C0770915D0780915E070E94130311E09A
S1130B700F900F900F900F900F900F90882319F003
S1130B8010E001C01F5F2091580730915907409130
S1130B905A0750915B0760915C0770915D078091E3
S1130BA05E070E941303882369F3112369F01F92DF
S1130BB01F938EE094E09F938F930E94840C0F9078
S1130BC00F900F900F9049CE84E494E00E94A10C02
S1130BD044CE1F9284E48F93BF92AF928EE694E04A
S1130BE09F938F930E94840C00915807109159078A
S1130BF020915A0730915B0740915C0750915D0743
S1130C0060915E0784E40E94F30186EB94E00E9405
S1130C10A10CFFEF29E688E1F15020408040E1F784
S1130C2000C0000082ED94E00E94A10C0F900F9090
S1130C300F900F900F900F9010CEBF92AF9285EF50
S1130C4094E09F938F930E94840C209158073091D5
S1130C50590740915A0750915B0760915C07709166
S1130C605D0780915E070E943E010F900F900F90E8
S1130C700F90882329F080E195E00E94A10CEDCD2E
S1130C802114310409F4E9CD8BE295E00E94A10C12
S1130C90E4CD81E0232809F080E0282E312C1F9236
S1130CA08F9388E495E09F938F930E94840C0F9018
S1130CB00F900F900F90D1CD1F928CEC8F93BF9219
S1130CC0AF9284E595E09F938F930E94840C0091EA
S1130CD058071091590720915A0730915B074091AA
S1130CE05C0750915D0760915E078CEC0E94F301F4
S1130CF00F900F900F900F900F900F90AECD1F920A
S1130D0085E58F93BF92AF928AE695E09F938F9388
S1130D100E94840C009158071091590720915A079A
S1130D2030915B0740915C0750915D0760915E07CD
S1130D3085E50E94F301009158071091590720910D
S1130D405A0730915B0740915C0750915D076091B1
S1130D505E0788E20E94F301009158071091590739
S1130D6020915A0730915B0740915C0750915D07D1
S1130D7060915E0786E20E94F3010091580710918A
S1130D80590720915A0730915B0740915C075091B5
S1130D905D0760915E078EE60E94F301009158079B
S1130DA01091590720915A0730915B0740915C07D5
S1130DB050915D0760915E0785E00E94F301009108
S1130DC058071091590720915A0730915B074091B9
S1130DD05C0750915D0760915E0785E00E94F30116
S1130DE0009158071091590720915A0730915B07D9
S1130DF040915C0750915D0760915E0780E00E941E
S1130E00F301009158071091590720915A07309126
S1130E105B0740915C0750915D0760915E0780E03D
S1130E200E94F301009158071091590720915A0725
S1130E3030915B0740915C0750915D0760915E07BC
S1130E408DE10E94F3018BE995E00E94A10C0F90C3
S1130E500F900F900F900F900F90FFCC1F9285E58D
S1130E608F93BF92AF928BEB95E09F938F930E94E9
S1130E70840C009158071091590720915A0730911A
S1130E805B0740915C0750915D0760915E0785E5C3
S1130E900E94F301009158071091590720915A07B5
S1130EA030915B0740915C0750915D0760915E074C
S1130EB088E20E94F301009158071091590720918C
S1130EC05A0730915B0740915C0750915D07609130
S1130ED05E0784E10E94F3010091580710915907BD
S1130EE020915A0730915B0740915C0750915D0750
S1130EF060915E0787EB0E94F301009158071091FF
S1130F00590720915A0730915B0740915C07509133
S1130F105D0760915E0785E00E94F3010091580728
S1130F201091590720915A0730915B0740915C0753
S1130F3050915D0760915E0785E00E94F301009186
S1130F4058071091590720915A0730915B07409137
S1130F505C0750915D0760915E0780E00E94F30199
S1130F60009158071091590720915A0730915B0757
S1130F7040915C0750915D0760915E0780E00E949C
S1130F80F301009158071091590720915A073091A5
S1130F905B0740915C0750915D0760915E0783E3B6
S1130FA00E94F3018BE995E00E94A10C0F900F9031
S1130FB00F900F900F900F9050CC1F9285E58F9358
S1130FC0BF92AF928CEE95E09F938F930E94840C16
S1130FD0009158071091590720915A0730915B07E7
S1130FE040915C0750915D0760915E0785E50E9422
S1130FF0F301009158071091590720915A07309135
S11310005B0740915C0750915D0760915E0788E241
S11310100E94F301009158071091590720915A0733
S113102030915B0740915C0750915D0760915E07CA
S113103082EA0E94F3010091580710915907209108
S11310405A0730915B0740915C0750915D076091AE
S11310505E0783E60E94F301009158071091590737
S113106020915A0730915B0740915C0750915D07CE
S113107060915E0785E00E94F3010091580710918A
S1131080590720915A0730915B0740915C075091B2
S11310905D0760915E0785E00E94F30100915807A7
S11310A01091590720915A0730915B0740915C07D2
S11310B050915D0760915E0780E00E94F30100910A
S11310C058071091590720915A0730915B074091B6
S11310D05C0750915D0760915E0780E00E94F30118
S11310E0009158071091590720915A0730915B07D6
S11310F040915C0750915D0760915E0787EC0E9408
S1131100F3018BE995E00E94A10C0F900F900F90D2
S11311100F900F900F90A1CB1F9285E58F93BF92F4
S1131120AF928DE196E09F938F930E94840C00917F
S113113058071091590720915A0730915B07409145
S11311405C0750915D0760915E0785E50E94F3019D
S1131150009158071091590720915A0730915B0765
S113116040915C0750915D0760915E0788E20E94A0
S1131170F301009158071091590720915A073091B3
S11311805B0740915C0750915D0760915E0789E4BD
S11311900E94F301009158071091590720915A07B2
S11311A030915B0740915C0750915D0760915E0749
S11311B080E40E94F301009158071091590720918F
S11311C05A0730915B0740915C0750915D0760912D
S11311D05E0785E00E94F3010091580710915907BA
S11311E020915A0730915B0740915C0750915D074D
S11311F060915E0785E00E94F30100915807109109
S1131200590720915A0730915B0740915C07509130
S11312105D0760915E0780E00E94F301009158072A
S11312201091590720915A0730915B0740915C0750
S113123050915D0760915E0780E00E94F301009188
S113124058071091590720915A0730915B07409134
S11312505C0750915D0760915E0780EA0E94F3018C
S11312608BE995E00E94A10C0F900F900F900F90C6
S11312700F900F90F2CA1F9285E58F93BF92AF92A1
S11312808AE496E09F938F930E94840C0091580700
S11312901091590720915A0730915B0740915C07E0
S11312A050915D0760915E0785E50E94F30100910E
S11312B058071091590720915A0730915B074091C4
S11312C05C0750915D0760915E0788E20E94F3011C
S11312D0009158071091590720915A0730915B07E4
S11312E040915C0750915D0760915E0785EF0E9415
S11312F0F301009158071091590720915A07309132
S11313005B0740915C0750915D0760915E078CE933
S11313100E94F301009158071091590720915A0730
S113132030915B0740915C0750915D0760915E07C7
S113133085E00E94F301009158071091590720910C
S11313405A0730915B0740915C0750915D076091AB
S11313505E0785E00E94F301009158071091590738
S113136020915A0730915B0740915C0750915D07CB
S113137060915E0780E00E94F3010091580710918C
S1131380590720915A0730915B0740915C075091AF
S11313905D0760915E0780E00E94F30100915807A9
S11313A01091590720915A0730915B0740915C07CF
S11313B050915D0760915E0785EA0E94F3018BE915
S11313C095E00E94A10C0F900F900F900F900F903A
S11313D00F9043CA1F9285E58F93BF92AF9289E71E
S11313E096E09F938F930E94840C0091580710916C
S11313F0590720915A0730915B0740915C0750913F
S11314005D0760915E0785E50E94F301009158072E
S11314101091590720915A0730915B0740915C075E
S113142050915D0760915E0788E20E94F30100918C
S113143058071091590720915A0730915B07409142
S11314405C0750915D0760915E0785E40E94F3019B
S1131450009158071091590720915A0730915B0762
S113146040915C0750915D0760915E0785E30E949F
S1131470F301009158071091590720915A073091B0
S11314805B0740915C0750915D0760915E0786E0C1
S11314900E94F301009158071091590720915A07AF
S11314A030915B0740915C0750915D0760915E0746
S11314B085E00E94F301009158071091590720918B
S11314C05A0730915B0740915C0750915D0760912A
S11314D05E0780E00E94F3010091580710915907BC
S11314E020915A0730915B0740915C0750915D074A
S11314F060915E0780E00E94F3010091580710910B
S1131500590720915A0730915B0740915C0750912D
S11315105D0760915E078AEE0E94F3018BE995E016
S11315200E94A10C0F900F900F900F900F900F90AE
S113153094C91F9280EF8F938AEA96E09F938F93CA
S11315400E94840C009158071091590720915A0762
S113155030915B0740915C0750915D0760915E0795
S113156080EF0E94F3010F900F900F900F9075C9B8
S11315701F928EEB8F93BF92AF92AEEBB6E0BF9308
S1131580AF930E94840C0091580710915907209141
S11315905A0730915B0740915C0750915D07609159
S11315A05E078EEB0E94F301ABEDB6E0BF93AF9301
S11315B00E94840CCE0101967C010FB6F894DEBF24
S11315C00FBECDBF088D198D209158073091590752
S11315D040915A0750915B0760915C0770915D07D9
S11315E080915E070E943F02F80181938F01E81504
S11315F0F90551F7D7018D917D011F928F93DF92E9
S1131600CF920E94840C0F900F900F900F90E814CB
S1131610F90481F78AE090E00E949A0CBA81BF8BAA
S11316208981E82EF12C1F92BF931F928F93A0EF14
S1131630B6E0BF93AF930E94840C8B811F928F936B
S113164089E097E09F938F930E94840C8C811F9272
S11316508F9385E197E09F938F930E94840C81E29E
S113166097E09F938F930E94840C0FB6F894DEBF8B
S11316700FBECDBF08E010E08D81881F8827881F2A
S11316801F928F935F924F920E94840C8D81880FDA
S11316908D83015011090F900F900F900F9061F7F7
S11316A08AE090E00E949A0C89851F928F938BE2C6
S11316B097E09F938F930E94840C8F89877090E0AA
S11316C0982F8827E80EF91EB7010F2C000C880B01
S11316D0990B0E94850B20E030E040E85DE30E9416
S11316E0C00B9F938F937F936F93FF92EF9288E346
S11316F097E09F938F930E94840C0FB6F894DEBFFB
S11317000FBECDBFAAC8E89409C097FB3EF49095DC
S11317108095709561957F4F8F4F9F4F9923A9F0C6
S1131720F92F96E9BB279395F69587957795679555
S1131730B795F111F8CFFAF4BB0F11F460FF1BC099
S11317406F5F7F4F8F4F9F4F16C0882311F096E92C
S113175011C0772321F09EE8872F762F05C06623DA
S113176071F096E8862F70E060E02AF09A95660F93
S1131770771F881FDAF7880F9695879597F908954C
S11317800E94D30B0C94440C0E94360C38F00E9437
S11317903D0C20F0952311F00C942D0C0C94330C7B
S11317A011240C94780C0E94550C70F3959FC1F38E
S11317B0950F50E0551F629FF001729FBB27F00DFB
S11317C0B11D639FAA27F00DB11DAA1F649F662750
S11317D0B00DA11D661F829F2227B00DA11D621F9F
S11317E0739FB00DA11D621F839FA00D611D221F59
S11317F0749F3327A00D611D231F849F600D211D3D
S1131800822F762F6A2F11249F5750409AF0F1F0BF
S113181088234AF0EE0FFF1FBB1F661F771F881F28
S113182091505040A9F79E3F510580F00C942D0C27
S11318300C94780C5F3FE4F3983ED4F38695779547
S11318406795B795F795E7959F5FC1F7FE2B880FCE
S1131850911D9695879597F9089597F99F6780E864
S113186070E060E008959FEF80EC089500240A94EE
S11318701616170618060906089500240A94121667
S11318801306140605060895092E0394000C11F49A
S1131890882352F0BB0F40F4BF2B11F460FF04C047
S11318A06F5F7F4F8F4F9F4F089557FD9058440FA0
S11318B0551F59F05F3F71F04795880F97FB991FAB
S11318C061F09F3F79F08795089512161306140668
S11318D0551FF2CF4695F1DF08C0161617061806F5
S11318E0991FF1CF86957105610508940895E894D0
S11318F0BB2766277727CB0197F90895EE0FFF1FC3
S11319000590F491E02D0994A0E0B0E0EAE8FCE051
S11319100C945F0FAE014B5F5F4FFA0161917191BF
S1131920AF0180916107909162070E94D10CE2E0BF
S11319300C947B0F60916107709162070E94B90E4D
S113194008950F931F93CF93DF93E0916107F09174
S11319506207238121FF1BC08C01D0E0C0E0F801A5
S113196081918F016091610770916207DB01189684
S1131970ED91FC911997882331F00995892B79F31E
S1131980DFEFCFEFECCF8AE00995892B19F08FEFC9
S11319909FEF02C08D2F9C2FDF91CF911F910F914C
S11319A00895ACE0B0E0E7EDFCE00C944F0F7C014F
S11319B06B018A01FC0117821682838181FFBDC1FC
S11319C0CE0101964C01F7019381F60193FD8591B7
S11319D093FF81916F01882309F4ABC1853239F4F7
S11319E093FD859193FF81916F01853229F4B701AD
S11319F090E00E94B90EE7CF512C312C20E0203228
S1131A00A0F48B3269F030F4803259F0833269F4F7
S1131A1020612CC08D3239F0803339F4216026C026
S1131A202260246023C0286021C027FD27C030ED38
S1131A30380F3A3078F426FF06C0FAE05F9E300D86
S1131A401124532E13C08AE0389E300D1124332EF6
S1131A5020620CC08E3221F426FD6BC1206406C0C6
S1131A608C3611F4206802C0883641F4F60193FDE7
S1131A70859193FF81916F018111C1CF982F9F7D33
S1131A809554933028F40C5F1F4FFFE3F9830DC086
S1131A90833631F0833771F0833509F05BC022C09F
S1131AA0F801808189830E5F1F4F44244394512C95
S1131AB0540115C03801F2E06F0E711CF801A080CA
S1131AC0B18026FF03C0652D70E002C06FEF7FEF89
S1131AD0C5012C870E94AE0E2C0183012C852F7723
S1131AE0222E17C03801F2E06F0E711CF801A0809D
S1131AF0B18026FF03C0652D70E002C06FEF7FEF59
S1131B00C5012C870E94A30E2C012C852068222E4F
S1131B10830123FC1BC0832D90E048165906B0F4C2
S1131B20B70180E290E00E94B90E3A94F4CFF50137
S1131B3027FC859127FE81915F01B70190E00E9407
S1131B40B90E31103A94F1E04F1A5108411451047E
S1131B5071F7E5C0843611F0893639F5F80127FFAD
S1131B6007C060817181828193810C5F1F4F08C01F
S1131B7060817181072E000C880B990B0E5F1F4F3B
S1131B802F76722E97FF09C0909580957095619578
S1131B907F4F8F4F9F4F2068722E2AE030E0A401C0
S1131BA00E94F10EA82EA81844C0853729F42F7E70
S1131BB0B22E2AE030E025C0F22FF97FBF2E8F36F7
S1131BC0C1F018F4883579F0B4C0803719F088373B
S1131BD021F0AFC02F2F2061B22EB4FE0DC08B2D8B
S1131BE08460B82E09C024FF0AC09F2F9660B92EC6
S1131BF006C028E030E005C020E130E002C020E16A
S1131C0032E0F801B7FE07C060817181828193815F
S1131C100C5F1F4F06C06081718180E090E00E5F11
S1131C201F4FA4010E94F10EA82EA818FB2DFF77C8
S1131C307F2E76FE0BC0372D3E7FA51450F474FE24
S1131C400AC072FC08C0372D3E7E05C0BA2C372D61
S1131C5003C0BA2C01C0B52C34FF0DC0FE01EA0D3F
S1131C60F11D8081803311F4397E09C032FF06C032
S1131C70B394B39404C0832F867809F0B39433FDEE
S1131C8013C030FF06C05A2CB31418F4530C5B185D
S1131C90B32CB31468F4B70180E290E03C870E944F
S1131CA0B90EB3943C85F5CFB31410F43B1801C0BE
S1131CB0312C34FF12C0B70180E390E03C870E94CE
S1131CC0B90E3C8532FF17C031FD03C088E790E0B0
S1131CD002C088E590E0B7010CC0832F867859F0E4
S1131CE031FF02C08BE201C080E237FD8DE2B70113
S1131CF090E00E94B90EA51438F4B70180E390E097
S1131D000E94B90E5A94F7CFAA94F401EA0DF11D7A
S1131D108081B70190E00E94B90EA110F5CF332065
S1131D2009F451CEB70180E290E00E94B90E3A94D2
S1131D30F6CFF7018681978102C08FEF9FEF2C9633
S1131D40E2E10C946B0FFC010590615070400110AE
S1131D50D8F7809590958E0F9F1F0895FC016150D0
S1131D60704001900110D8F7809590958E0F9F1FB9
S1131D7008950F931F93CF93DF93FB01238121FDDC
S1131D8003C08FEF9FEF28C022FF16C04681578102
S1131D90248135814217530744F4A081B1819D0108
S1131DA02F5F3F4F318320838C93268137812F5FB0
S1131DB03F4F3783268310C0EB01092F182F00846F
S1131DC0F185E02D0995892BE1F68E819F8101969D
S1131DD09F838E83812F902FDF91CF911F910F913D
S1131DE00895FA01AA27283051F1203181F1E894AD
S1131DF06F936E7F6E5F7F4F8F4F9F4FAF4FB1E0FA
S1131E003ED0B4E03CD0670F781F891F9A1FA11DF4
S1131E10680F791F8A1F911DA11D6A0F711D811DF5
S1131E20911DA11D20D009F468943F912AE0269FBA
S1131E3011243019305D3193DEF6CF010895462F19
S1131E404770405D4193B3E00FD0C9F7F6CF462FFA
S1131E504F70405D4A3318F0495D31FD4052419363
S1131E6002D0A9F7EACFB4E0A69597958795779520
S1131E706795BA95C9F700976105710508959B01A7
S1131E80AC010A2E06945795479537952795BA9530
S1131E90C9F7620F731F841F951FA01D08952F9209
S1131EA03F924F925F926F927F928F929F92AF92E6
S1131EB0BF92CF92DF92EF92FF920F931F93CF9333
S1131EC0DF93CDB7DEB7CA1BDB0B0FB6F894DEBFCA
S1131ED00FBECDBF09942A88398848885F846E84F0
S1131EE07D848C849B84AA84B984C884DF80EE803A
S1131EF0FD800C811B81AA81B981CE0FD11D0FB643
S1131F00F894DEBF0FBECDBFED010895F894FFCF66
S1131F100000000200000000B802000000000A0AED
S1131F207374617274696E6720616E6577202E2EFA
S1131F302E006C6F6F70206F6620313020746F67D5
S1131F40676C65732020697320646F6E6500683A5E
S1131F502068656C7000303A2077726974652030AF
S1131F6000313A207772697465203100623A207238
S1131F7065616420312062697400613A20524541F0
S1131F80445F524F4D2028307825303278290A009A
S1131F90643A20746F67676C652064656275672CAA
S1131FA02063757272656E746C79206465627567FE
S1131FB02069733A25750A00653A2074656D706569
S1131FC072617475726520636F6E76657273696F82
S1131FD06E20776974686F75742072656164696EC8
S1131FE067207468652073746174757320666F72FA
S1131FF020706172617369746520706F7765720017
S1132000693A20696E697469616C697A652028721D
S1132010657365742900683A20746869732068657B
S11320206C70006B3A204D415443485F524F4D2031
S1132030666F72206465766963652032382E3435A4
S113204033353036303530303030656120283078E3
S113205025303278290A006D3A204D415443485FB7
S1132060524F4D20666F7220646576696365203235
S1132070382E34393430303530353030303061300A
S11320802028307825303278290A006C3A204D41D6
S11320905443485F524F4D20666F722064657669E1
S11320A063652032382E663563393035303530304B
S11320B0303061352028307825303278290A0037CD
S11320C03A204D415443485F524F4D20666F722071
S11320D06465766963652032382E3236366530356C
S11320E03035303030303164202830782530327843
S11320F0290A00383A204D415443485F524F4D203D
S1132100666F72206465766963652032382E3134D7
S11321106237303530353030303033332028307842
S113212025303278290A00393A204D415443485F1A
S1132130524F4D20666F7220646576696365203264
S1132140382E613236333035303530303030633705
S11321502028307825303278290A00733A20534BEE
S113216049505F524F4D2028307825303278290A63
S113217000633A20434F4E564552545F5420283052
S113218078253032782920616E6420776169742063
S1132190316D730A00743A20524541445F534352EF
S11321A0415443485041442028307825303278291E
S11321B0202C205245414420322062797465732CCE
S11321C0207072696E742074656D706572617475C7
S11321D072650A0025753A20524541445F524F4DBD
S11321E03A203078253032780A0072656164696E6D
S11321F06720616464726573733A20002030782527
S11322003032780025780025753A20434F4E5645E4
S113221052545F543A203078253032780A0054689A
S1132220652074656D706572617475726520636F85
S11322306E76657273696F6E20636F6D706C657412
S11322406564206166746572202575206C6F6F70FB
S1132250732E0A005468652074656D70657261742C
S113226075726520636F6E76657273696F6E206E2A
S113227065766572207374617274656421002575D6
S11322803A20434F4E564552545F543A20307825F5
S113229030327820776974686F7574207265616470
S11322A0696E67207374617475732028676F6F6437
S11322B020666F7220706172617369746520706F3B
S11322C0776572290A0074686520636F6E7665729B
S11322D073696F6E207761732073746172746564BF
S11322E02E0074686520636F6E76657273696F6E15
S11322F02053484F554C4420626520646F6E65201E
S11323006E6F772E0025753A2072657365742F7091
S1132310726573656E6365206465746563740A0031
S113232020202020202D3E2073656E736F7220695B
S11323306E6974206661696C656400202020202D1C
S11323403E2073656E736F7220696E6974207375B5
S113235063636565646564006465627567203D2038
S113236025750A0025753A20534B49505F524F4D4D
S11323703A203078253032780A0025753A204D41CC
S11323805443485F524F4D2064657669636520323B
S1132390382E3236366530353035303030303164B1
S11323A0203A203078253032780A0074686520524B
S11323B04F4D206461746120686173206265656EAD
S11323C0207375626D69747465640025753A204DD7
S11323D0415443485F524F4D2064657669636520DC
S11323E032382E3134623730353035303030303396
S11323F033203A203078253032780A0025753A2087
S11324004D415443485F524F4D206465766963657E
S11324102032382E6132363330353035303030307A
S11324206337203A203078253032780A0025753A0F
S1132430204D415443485F524F4D20646576696393
S1132440652032382E343934303035303530302050
S11324503A203078253032780A0025753A204D41EB
S11324605443485F524F4D2064657669636520325A
S1132470382E663539633035303530306135203AA1
S1132480203078253032780A0025753A204D4154A1
S113249043485F524F4D2064657669636520323846
S11324A02E343533353036303530303030656120B8
S11324B03A203078253032780A0053454152434857
S11324C05F524F4D3A203078253032780A00257516
S11324D03A20524541445F5343524154434850418A
S11324E0443A203078253032780A00726561646994
S11324F06E6720736372617463687061643A20006C
S113250074656D70657261747572653A20307825F2
S1132510303278253032780A0054683A20307825F1
S11325203032780A00546C3A203078253032780AF8
S113253000636F6E666967203A20004552433A2073
S11325403078253032780A0074656D706572617474
S113255075726520307825303478203D2025362E5C
S1092560336620430A006B
S9030000FC
