:100000000C94C7010C94E4010C94E4010C94E401F9
:100010000C94E4010C94E4010C94E4010C94E401CC
:100020000C94E4010C94E4010C94E4010C94E401BC
:100030000C94E4010C94E4010C94E4010C94E401AC
:100040000C94E4010C94E4010C94E4010C94E4019C
:100050000C94E4010C94E4010C94E4010C94E4018C
:100060000C94E4010C94E4014A066C046C046C04E6
:100070006C046C046C046C046C046C046C046C0400
:100080006C046C046C046C046C046C046C041F053C
:100090006C046C046C046C046C046C046C046C04E0
:1000A0006C046C046C046C046C04240543050105A9
:1000B00010056C046C046C046C046C046C046C041B
:1000C0006C046C046C046C046C046C04BF056C045C
:1000D0006C044F066C046C046C046C046C046C04BB
:1000E0006C046C046C046C046C046C046C046C0490
:1000F0006C046C046C046C046C046C046C046C0480
:100100006C046C046C046C046C046C046C046C046F
:10011000CE0565067B06FD06180748076C047F04BC
:1001200038086E086C046C046C04BE086C04C308C8
:100130006C046C04D508F1086C046C046C04D009E0
:1001400025753A61626F72740A00616C6C2061649B
:100150006472657373657320666F756E640A0074EC
:100160006865726520617265206E6F2064657669CE
:10017000636573206F6E2074686973206368616EB5
:100180006E656C2E0A00743A20524541445F534319
:100190005241544348504144202830782530327829
:1001A00029202C2052454144203220627974657305
:1001B0002C207072696E742074656D706572617444
:1001C0007572650A00703A207375626D6974205209
:1001D0004541445F504F5745525F535550504C591D
:1001E0002028307825303278290A00693A20696E53
:1001F000697469616C697A65202872657365742910
:100200000A00683A20746869732068656C700A0097
:10021000663A205345415243485F52494D20286970
:100220006E636C7564657320616E20696E697429F4
:100230000A00653A2074656D706572617475726547
:1002400020636F6E76657273696F6E20776974686C
:100250006F75742072656164696E672074686520CB
:100260007374617475732028676F6F6420666F7292
:1002700020706172617369746520706F776572298F
:100280000A00643A20746F67676C65206465627564
:10029000672C2063757272656E746C792064656278
:1002A00075672069733A25750A00633A20434F4EFB
:1002B000564552545F542028307825303278292012
:1002C000616E64207761697420316D730A00613A50
:1002D00020524541445F524F4D202830782530321E
:1002E00078290A00623A20726561642031206269CF
:1002F00074200A00313A20777269746520312074C5
:100300006F200A00303A20777269746520302074BB
:100310006F200A002E3A207375626D697474696EDD
:100320006720524541445F53434154434850414440
:100330002820307825303278290A003F3A20707220
:10034000696E7420746865206163746976652063E2
:1003500068616E6E656C0A002F3A207375626D6974
:100360007474696E6720746865206C6173742072A0
:100370006561642061646472657373207769746871
:100380002061204D415443485F524F4D0A001124D3
:100390001FBECFEFD8E0DEBFCDBF14E0A0E0B1E0DC
:1003A000ECEEFAE102C005900D92A63AB107D9F73A
:1003B00026E0A6EAB4E001C01D92A339B207E1F736
:1003C0000E94F2030C94740D0C940000FB0188232E
:1003D000E1F0A481B5813C9181E090E0AC01068020
:1003E00002C0440F551F0A94E2F7242F20952323BF
:1003F0002C93A081B1812C91068002C0880F991F97
:100400000A94E2F7822B8C930895A481B5814C91D4
:1004100081E090E09C01068002C0220F331F0A9405
:10042000E2F7242B2C93A081B1812C91068002C08D
:10043000880F991F0A94E2F7809582238C93089580
:10044000CF93DF93EB01882371F080E00E94E601F7
:1004500088E08A95F1F7BE0181E00E94E60188E913
:100460008A95F1F706C080E00E94E60180EA8A954D
:10047000F1F7BE0181E00E94E6018AE18A95F1F779
:1004800000C0DF91CF910895DF92EF92FF920F931A
:100490001F93CF93DF93D82E7B01C0E0D0E001E023
:1004A00010E0C8010C2E02C0880F991F0A94E2F7D1
:1004B000B7018D210E9420022196C830D10589F70D
:1004C000DF91CF911F910F91FF90EF90DF900895F2
:1004D000CF93DF93EC01BC0180E00E94E60180E154
:1004E0008A95F1F7BE0181E00E94E6019AE09A95B3
:1004F000F1F700C0EA81FB81408121E030E0C901D1
:100500000E8002C0880F991F0A94E2F7942F982357
:1005100081E009F480E095E89A95F1F700009AE10E
:100520009A95F1F700C0DF91CF910895CF92DF92B5
:10053000EF92FF921F93CF93DF937C01C0E0D0E056
:1005400010E0CC24C394D12CC7010E9468028823F8
:1005500041F0C6010C2E02C0880F991F0A94E2F7E1
:10056000182B2196C830D10579F7812FDF91CF91D3
:100570001F91FF90EF90DF90CF900895FC01A48130
:10058000B5813C9181E090E0AC01068002C0440F4F
:10059000551F0A94E2F7242F209523232C93A08142
:1005A000B1814C919C01068002C0220F331F0A9436
:1005B000E2F7242B2C93A281B3812C91068002C0F8
:1005C000880F991F0A94E2F730E08223932308955D
:1005D000EF92FF920F931F93CF93DF938C01BC0197
:1005E00080E00E94E6018FEB93E00197F1F700C0F5
:1005F0000000B80181E00E94E60198E29A95F1F7C7
:10060000CCE2D1E0F12CEE24E39482E08A95F1F77C
:1006100000C0C8010E94BE02892B09F4FE2C21975C
:10062000A1F787E691E00197F1F700C0000081E0B3
:10063000F11080E0DF91CF911F910F91FF90EF902B
:100640000895EF92FF920F931F93CF93DF938C0146
:10065000BC0180E00E94E6018FEB93E00197F1F787
:1006600000C00000B80181E00E94E601C6EAD4E0C3
:100670000F2EF6E8EF2EF6E0FF2EF02DC8010E94B7
:10068000BE028993CE15DF05C9F786EA94E0DF91B3
:10069000CF911F910F91FF90EF9008956F927F92ED
:1006A0008F929F92AF92BF92CF92DF92EF92FF9282
:1006B0000F931F93CF93DF938C016B0180EF0E9408
:1006C00044027801E801AA24A3949924939468949D
:1006D000BB24B2F86894882481F802C02196A394C0
:1006E0006C2E6E18C6010E946802782EC6010E9408
:1006F0006802FE019881943039F571100DC08111A6
:1007000005C08082B6010E94200236C01082B60168
:1007100080E00E94200230C0811106C09082B601A4
:10072000892D0E94200228C088E080831F926F924A
:1007300080E491E09F938F930E94620A0F900F9044
:100740000F900F9088E03FC094FF11C09082B601D7
:10075000892D0E9420028FE38A1590F09A2DF801CE
:10076000E90FF11DB0829F5F9034C9F7B7CFB60192
:10077000892F81700E942002EFE3EA1508F0AECFC6
:100780009801205C3F4FF80180E091919670892B91
:10079000E217F307D1F70DC0F80131978F0190816F
:1007A00091FF03C0906190830EC0EE16FF06A1F783
:1007B0000AC0F80197AD91FD03C0015C1F4FECCF5B
:1007C000F801FF96EFCFDF91CF911F910F91FF902E
:1007D000EF90DF90CF90BF90AF909F908F907F90E1
:1007E0006F900895CF93DF93CDB7DEB7C358D1098B
:1007F0000FB6F894DEBF0FBECDBF0E94010A8AE09B
:1008000090E00E94880A8AE090E00E94880A8AE0CC
:1008100090E00E94880A8AE090E00E94880A48E2FC
:1008200050E05A83498326E230E03C832B8387E201
:1008300090E09E838D8365E06F83598748873B876F
:100840002A879D878C8764E06E87588B4F873A8B09
:10085000298B9C8B8B8B83E08D8BCE0101969F8B9C
:100860008E8B0796998F888F07969B8F8A8F8EE045
:1008700091E00E948F0A81E0C12CD12C612C712C57
:1008800021E030E0EA963FAF2EAFEA97DE01119605
:100890002D017E01B6E3EB0EF11CFE01EA58FF4F7D
:1008A000E896FFAFEEAFE8970BE413E0C058DF4FD8
:1008B000E882C058D040CF57DF4FF882C158D040AF
:1008C000CE57DF4F4882C258D040CD57DF4F5882B5
:1008D000C358D040130101C080E081117CC581E084
:1008E0000E94190AFFEFCF1ADF0A90E0FC013D9742
:1008F000EC36F10588F7EC5CFF4F0C94320A8AE085
:1009000090E00E94880A88E593E09F938F930E946D
:10091000620A8BE393E09F938F930E94620A1F9277
:100920000F2EFEEBBF2EF02DBF9284E193E09F933C
:100930008F930E94620A84E093E09F938F930E94BA
:10094000620A84EF92E09F938F930E94620A84EE82
:1009500092E09F938F930E94620A1F9283E38F938A
:100960008EEC92E09F938F930E94620A1F9284E420
:100970008F938AEA92E09F938F930E94620AEA968D
:100980002FADEA972F93E9963FADE9973F9382E821
:1009900092E09F938F930E94620A82E392E09F937A
:1009A0008F930E94620A80E192E09F938F930E944E
:1009B000620A82E092E09F938F930E94620A0FB6D0
:1009C000F894DEBF0FBECDBF8BEE91E09F938F9367
:1009D0000E94620A1F9284EB8F9385EC91E09F93B3
:1009E0008F930E94620A1F92BF9286E891E09F93C4
:1009F0008F930E94620A0FB6F894DEBF0FBECDBF80
:100A00006BCFF101EE0FFF1FE40DF51D65897689AF
:100A100080E00E94200280E390E00E94880A5CCF80
:100A2000F101EE0FFF1FE40DF51D6589768981E068
:100A30000E94200281E390E00E94880A4DCF80E26C
:100A400090E00E94880A48CF1F928EEB8F93DF922E
:100A5000CF923F922F921F928F938DE291E09F93BE
:100A60008F930E944C0AF101EE0FFF1FE40DF51D5C
:100A7000658976898EEB0E9444020FB6F894DEBF3A
:100A80000FBECDBF29CFF101EE0FFF1FEE0FFF1FED
:100A9000EE0FFF1FE40DF51D22A1EB962FAFEB9794
:100AA00091A080A0778C668C358DED963FAFED9749
:100AB000848DEF968FAFEF97938DC158DF4F98835A
:100AC000CF57D0401F922F931F929F921F928F92C9
:100AD0001F927F921F926F921F923F931F928F934C
:100AE0001F929F931F9285E58F9387E691E09F93D6
:100AF0008F930E944C0ACE57DF4F6881C258D04076
:100B0000CD57DF4F7881C358D04085E50E9444021D
:100B1000F101EE0FFF1FE40DF51DA588B688B501A4
:100B2000C158DF4F8881CF57D0400E944402B501A1
:100B3000EF968FADEF970E944402B501ED968FAD11
:100B4000ED970E944402B501862D0E944402B50132
:100B5000872D0E944402B501882D0E944402B501F0
:100B6000892D0E944402B501EB968FADEB970E9450
:100B700044020FB6F894DEBF0FBECDBFADCEC101AB
:100B800001969F938F9383EB91E09F938F930E94A5
:100B90004C0A0F900F900F900F909ECE1F9283E300
:100BA0008F933F922F92DF92CF9289EC91E09F93A7
:100BB0008F930E944C0A8AEE91E09F938F930E943C
:100BC0004C0AF101EE0FFF1FE40DF51D65887688D4
:100BD000B30183E30E94440210928C0610928B06AC
:100BE0000FB6F894DEBF0FBECDBFA12CB12C4101D2
:100BF000880C991C880C991C880C991C840C951CD9
:100C0000C3010E949602F401EA0DFB1D838FA090A0
:100C10008B06B0908C06FFEFAF1ABF0AB0928C061D
:100C2000A0928B0628E0A216B10454F310928C0611
:100C300010928B0680E090E04101880C991C880C92
:100C4000991C880C991C840C951C0F2EFFEFAF2E5D
:100C5000F1E0BF2EF02DF401E80FF91F838D1F92F4
:100C60008F93BF92AF920E944C0A80918B06909115
:100C70008C06019690938C0680938B060F900F90B4
:100C80000F900F908830910534F38AE090E00E9435
:100C9000880A22CE8AE090E00E94880A1DCEF101E7
:100CA000EE0FFF1FE40DF51D858996890E949602BF
:100CB0001F928F938CEF91E09F938F930E944C0A29
:100CC0000F900F900F900F9007CEF101EE0FFF1FC6
:100CD000E40DF51D858996890E9468021F928F9305
:100CE00084E092E09F938F930E944C0A0F900F90A4
:100CF0000F900F90F1CD1F9284E48F93DF92CF92EB
:100D000087E092E09F938F930E944C0AF101EE0FCF
:100D1000FF1FE40DF51D85889688B40184E40E94C8
:100D20004402EB89FC89408181E090E09C010D88C0
:100D300002C0220F331F0A94E2F7242B2083EF8591
:100D4000F88920810D8802C0880F991F0A94E2F764
:100D5000822B80838FEC97E00197F1F700C00000B1
:100D6000C4010E94680221E090E00F900F900F9064
:100D70000F900F900F90811120E0A22EB92E07C086
:100D80009FEFA91AB90AAAE1AA95F1F700C0C40118
:100D90000E9468028823A1F3EB89FC89308181E0FD
:100DA00090E0AC010D8802C0440F551F0A94E2F791
:100DB000242F209523232083EF85F88920810D8817
:100DC00002C0880F991F0A94E2F7809582238083DE
:100DD000A114B10469F0BF92AF928EE192E09F93AB
:100DE0008F930E944C0A0F900F900F900F9074CD2C
:100DF00084E592E00E948F0A6FCD81E0EA96EEAD25
:100E0000FFADEA97EF2B09F080E0282F30E0EA965B
:100E10003FAF2EAFEA971F928F938EE792E09F939A
:100E20008F930E944C0A0F900F900F900F9054CD0B
:100E3000C10101969F938F931F9284E48F93DF9259
:100E4000CF928AE892E09F938F930E944C0AF1011F
:100E5000EE0FFF1FE40DF51D6589768984E40E947D
:100E6000440281EE92E00E948F0A3FEF89E698E10A
:100E7000315080409040E1F700C000008DEF92E0DB
:100E80000E948F0A0FB6F894DEBF0FBECDBF24CDEF
:100E9000C10101969F938F931F9280EF8F93DF92F2
:100EA000CF9280E293E09F938F930E944C0AF701C8
:100EB0000FB6F894DEBF0FBECDBF84E08193E896F5
:100EC000AEADBFADE897EA17FB07C1F780E490E04D
:100ED00090938C0680938B064101880C991C840C9E
:100EE000951CB5E18B0E911C66246394712CEC96D5
:100EF000DFAECEAEEC97EE965FAE4EAEEE97C0583C
:100F0000DF4F5880C058D040CF57DF4FD880C158EE
:100F1000D040F401A080B180C5010E94E802B50173
:100F2000852D9D2D0E944E0380938606823029F0E8
:100F3000883009F47FC0811185C010928C06109210
:100F40008B06109288061092870620E030E0E09130
:100F50008B06F0918C06EE0FFF1FEE0FFF1FEE0FBA
:100F6000FF1F3796E21BF30BEE0DFF1D862D972D0D
:100F70002081211101C0872D9F938F931F930F9381
:100F80000E944C0A20918706309188062F5F3F4FC0
:100F900030938806209387060F900F900F900F9044
:100FA00024303105A4F2109288061092870620E0C2
:100FB00030E0E0918B06F0918C06EE0FFF1FEE0FF4
:100FC000FF1FEE0FFF1F3396E21BF30BEE0DFF1D0D
:100FD000262D872D9081911101C0272D8F932F935E
:100FE0001F930F930E944C0A209187063091880628
:100FF0002F5F3F4F30938806209387060F900F9006
:101000000F900F9024303105A4F280E290E00E940E
:10101000880A80918B0690918C06019690938C069D
:1010200080938B0608970CF48CCF8AE090E00E94A6
:10103000880A08C0AFE5B1E0BF93AF930E94620A8F
:101040000F900F9080918606867009F062CFEC9623
:10105000CEACDFACEC97EE964EAC5FACEE978AE48C
:1010600091E09F938F930E94620A0F900F9034CC6F
:10107000C10101969F938F93DF92CF928EE493E00C
:101080009F938F930E944C0AF101EE0FFF1FE40D16
:10109000F51D858996890E94E8020F900F900F90A8
:1010A0000F900F900F90882369F01F928F9388E71D
:1010B00093E09F938F930E944C0A0F900F900F9094
:1010C0000F900ACCEA962EAD3FADEA97232B09F498
:1010D00003CC88EA93E00E948F0AFECBF101EE0F69
:1010E000FF1FE40DF51D858996890E9421035C018F
:1010F00010928C0610928B0620E030E00F2EF4E662
:101100006F2E712CF02D0F2EF5EC8F2EF3E09F2E0D
:10111000F02DC901B3010E941E0A892B51F43F939F
:101120002F939F928F920E944C0A0F900F900F90D6
:101130000F90E0918B06F0918C06EA0DFB1D8081EB
:10114000882329F081E390E00E94880A04C080E3AC
:1011500090E00E94880A20918B0630918C062F5FC8
:101160003F4F30938C0620938B06203E81E038075A
:1011700084F28AE090E00E94880AAECB8AE090E098
:101180000E94880AA9CB3F922F921F9284EB8F93E3
:101190008EEC93E09F938F930E944C0A0F900F90D8
:1011A0000F900F900F900F9097CB1F928CEC8F9316
:1011B000DF92CF928FEF93E09F938F930E944C0A20
:1011C000F101EE0FFF1FE40DF51D658976898CECAA
:1011D0000E9444020F900F900F900F900F900F906D
:1011E0007BCB1F928EEB8F93DF92CF9285E194E0C1
:1011F0009F938F930E944C0AF101EE0FFF1FE40DA5
:10120000F51D85889688B4018EEB0E94440282E326
:1012100094E09F938F930E944C0A10928C06109238
:101220008B060FB6F894DEBF0FBECDBFA12CB12C3C
:10123000C4010E949602ECE2F0E0EC0FFD1FEA0D03
:10124000FB1D8083A0908B06B0908C06BFEFAB1A7D
:10125000BB0AB0928C06A0928B06E9E0AE16B104F0
:101260003CF310928C0610928B0680E090E00F2EDB
:10127000FFEFAF2EF1E0BF2EF02DECE2F0E0EC0F2F
:10128000FD1FE80FF91F80811F928F93BF92AF92CD
:101290000E944C0A80918B0690918C060196909347
:1012A0008C0680938B060F900F900F900F908930D3
:1012B00091051CF38AE090E00E94880A8CA5982F83
:1012C0009F7041E752E0949F9001959F300D11244B
:1012D0003F932F932DA590E0922B929582958F703E
:1012E00089279F7089279F938F9387E494E09F932A
:1012F0008F930E944C0A8EA51F928F938FE594E0E6
:101300009F938F930E944C0A8FA51F928F938AE61A
:1013100094E09F938F930E944C0A85E794E09F93FB
:101320008F930E944C0A10928C0610928B060FB677
:10133000F894DEBF0FBECDBF0F2EF4E0AF2EF2E06B
:10134000BF2EF02D88A9881F8827881F1F928F9392
:10135000BF92AF920E944C0A88A9880F88AB8091F7
:101360008B0690918C06019690938C0680938B0649
:101370000F900F900F900F90089724F38AE090E061
:101380000E94880A8CA91F928F938FE794E09F9305
:101390008F930E944C0A0F900F900F900F909CCA51
:1013A0003FEF231A330AC10181709078992324F406
:1013B00001978E6F9F6F01961C0101969F938F93EB
:1013C0008CE894E09F938F930E944C0A0F900F90AB
:1013D0000F900F9081CA8FEFC81AD80A90CACF9386
:1013E000C82F8A3019F48DE00E94EF09E0ECF0E09C
:1013F000908195FFFDCFC093C60080E090E0CF9133
:1014000008951092C50083E38093C40088E180931F
:10141000C10080E091E09093900680938F0608953C
:101420008091C00088231CF48091C600089580E05C
:1014300008950E94100A8823E1F3089597FB072E70
:1014400016F4009407D077FD09D00E94380A07FCF3
:1014500005D03EF4909581959F4F089570956195C4
:101460007F4F0895EE0FFF1F0590F491E02D099432
:10147000AA1BBB1B51E107C0AA1FBB1FA617B707BA
:1014800010F0A61BB70B881F991F5A95A9F78095D6
:101490009095BC01CD010895A0E0B0E0E2E5FAE04E
:1014A0000C944D0DAE014B5F5F4FFA01619171914C
:1014B000AF0180918F06909190060E94BF0AE2E0F2
:1014C0000C94690DA0E0B0E0E8E6FAE00C944B0D56
:1014D000AE01495F5F4FDA016D917D91AD010DE87D
:1014E00016E0F80182819381DC0113962C91139709
:1014F000286013962C930E94BF0AD8011296ED9192
:10150000FC9113972381277F2383E4E00C94670DDC
:1015100060918F06709190060E94A70C08950F931A
:101520001F93CF93DF93E0918F06F0919006238174
:1015300021FF1BC08C01D0E0C0E0F80181918F0138
:1015400060918F0670919006DB011896ED91FC91E9
:101550001997882331F00995892B79F3DFEFCFEFC5
:10156000ECCF8AE00995892B19F08FEF9FEF02C02D
:101570008D2F9C2FDF91CF911F910F910895ACE09B
:10158000B0E0E5ECFAE00C943D0D7C016B018A01C2
:10159000FC0117821682838181FFBDC1CE010196B5
:1015A0004C01F7019381F60193FD859193FF8191A1
:1015B0006F01882309F4ABC1853239F493FD85911D
:1015C00093FF81916F01853229F4B70190E00E9469
:1015D000A70CE7CF512C312C20E02032A0F48B3225
:1015E00069F030F4803259F0833269F420612CC004
:1015F0008D3239F0803339F4216026C022602460B6
:1016000023C0286021C027FD27C030ED380F3A30B5
:1016100078F426FF06C0FAE05F9E300D1124532EA9
:1016200013C08AE0389E300D1124332E20620CC086
:101630008E3221F426FD6BC1206406C08C3611F475
:10164000206802C0883641F4F60193FD859193FF2E
:1016500081916F018111C1CF982F9F7D9554933057
:1016600028F40C5F1F4FFFE3F9830DC0833631F080
:10167000833771F0833509F05BC022C0F8018081A7
:1016800089830E5F1F4F44244394512C540115C08D
:101690003801F2E06F0E711CF801A080B18026FFC6
:1016A00003C0652D70E002C06FEF7FEFC5012C878E
:1016B0000E949C0C2C0183012C852F77222E17C0B1
:1016C0003801F2E06F0E711CF801A080B18026FF96
:1016D00003C0652D70E002C06FEF7FEFC5012C875E
:1016E0000E94910C2C012C852068222E830123FC62
:1016F0001BC0832D90E048165906B0F4B70180E274
:1017000090E00E94A70C3A94F4CFF50127FC859154
:1017100027FE81915F01B70190E00E94A70C311074
:101720003A94F1E04F1A51084114510471F7E5C0A1
:10173000843611F0893639F5F80127FF07C060813A
:101740007181828193810C5F1F4F08C0608171811C
:10175000072E000C880B990B0E5F1F4F2F76722EF1
:1017600097FF09C090958095709561957F4F8F4F39
:101770009F4F2068722E2AE030E0A4010E94DF0C07
:10178000A82EA81844C0853729F42F7EB22E2AE04F
:1017900030E025C0F22FF97FBF2E8F36C1F018F44C
:1017A000883579F0B4C0803719F0883721F0AFC0A0
:1017B0002F2F2061B22EB4FE0DC08B2D8460B82E69
:1017C00009C024FF0AC09F2F9660B92E06C028E0EA
:1017D00030E005C020E130E002C020E132E0F80155
:1017E000B7FE07C060817181828193810C5F1F4FBA
:1017F00006C06081718180E090E00E5F1F4FA40100
:101800000E94DF0CA82EA818FB2DFF777F2E76FEF6
:101810000BC0372D3E7FA51450F474FE0AC072FC35
:1018200008C0372D3E7E05C0BA2C372D03C0BA2C18
:1018300001C0B52C34FF0DC0FE01EA0DF11D808101
:10184000803311F4397E09C032FF06C0B394B394DB
:1018500004C0832F867809F0B39433FD13C030FFA2
:1018600006C05A2CB31418F4530C5B18B32CB314E1
:1018700068F4B70180E290E03C870E94A70CB39423
:101880003C85F5CFB31410F43B1801C0312C34FF64
:1018900012C0B70180E390E03C870E94A70C3C8512
:1018A00032FF17C031FD03C088E790E002C088E531
:1018B00090E0B7010CC0832F867859F031FF02C049
:1018C0008BE201C080E237FD8DE2B70190E00E941B
:1018D000A70CA51438F4B70180E390E00E94A70C90
:1018E0005A94F7CFAA94F401EA0DF11D8081B70153
:1018F00090E00E94A70CA110F5CF332009F451CE3F
:10190000B70180E290E00E94A70C3A94F6CFF7016D
:101910008681978102C08FEF9FEF2C96E2E10C94B5
:10192000590DFC010590615070400110D8F7809569
:1019300090958E0F9F1F0895FC016150704001909B
:101940000110D8F7809590958E0F9F1F08950F93E3
:101950001F93CF93DF93FB01238121FD03C08FEF02
:101960009FEF28C022FF16C0468157812481358110
:101970004217530744F4A081B1819D012F5F3F4F6F
:10198000318320838C93268137812F5F3F4F3783AC
:10199000268310C0EB01092F182F0084F185E02D5C
:1019A0000995892BE1F68E819F8101969F838E8315
:1019B000812F902FDF91CF911F910F910895FA0100
:1019C000AA27283051F1203181F1E8946F936E7F7E
:1019D0006E5F7F4F8F4F9F4FAF4FB1E03ED0B4E06F
:1019E0003CD0670F781F891F9A1FA11D680F791FB0
:1019F0008A1F911DA11D6A0F711D811D911DA11DC1
:101A000020D009F468943F912AE0269F11243019D0
:101A1000305D3193DEF6CF010895462F4770405D6B
:101A20004193B3E00FD0C9F7F6CF462F4F70405D1A
:101A30004A3318F0495D31FD4052419302D0A9F775
:101A4000EACFB4E0A6959795879577956795BA956F
:101A5000C9F700976105710508959B01AC010A2E35
:101A600006945795479537952795BA95C9F7620F0C
:101A7000731F841F951FA01D08952F923F924F92B0
:101A80005F926F927F928F929F92AF92BF92CF920E
:101A9000DF92EF92FF920F931F93CF93DF93CDB717
:101AA000DEB7CA1BDB0B0FB6F894DEBF0FBECDBF8F
:101AB00009942A88398848885F846E847D848C8460
:101AC0009B84AA84B984C884DF80EE80FD800C8169
:101AD0001B81AA81B981CE0FD11D0FB6F894DEBF4C
:0C1AE0000FBECDBFED010895F894FFCFBC
:101AEC000000000200000000EF0900000000546834
:101AFC00652070726F6772616D20776173207265FB
:101B0C0073746172746564202E2E2E0A0025753A4A
:101B1C002073656E6420524541445F5343524154D7
:101B2C00434850414420283078253032782920749D
:101B3C006F206368616E6E656C732025753A20307A
:101B4C0078253032780A004D415443485F524F4D4E
:101B5C002028307825303278292C2073656C656309
:101B6C0074696E6720206368616E6E656C20313A13
:101B7C00202530782E2530327825303278253032B9
:101B8C00782530327825303278253032782530324D
:101B9C00780A00616374697665206368616E6E65AE
:101BAC006C2069732025750A0025753A2052454131
:101BBC00445F524F4D206368616E6E656C202575D5
:101BCC003A203078253032780A0072656164696E8B
:101BDC006720616464726573733A20002030782545
:101BEC003032780025780025753A20434F4E564503
:101BFC0052545F543A203078253032780A005468B9
:101C0C00652074656D706572617475726520636FA3
:101C1C006E76657273696F6E20636F6D706C657430
:101C2C006564206166746572202575206C6F6F7019
:101C3C00732E0A005468652074656D70657261744A
:101C4C0075726520636F6E76657273696F6E206E48
:101C5C0065766572207374617274656421006465C5
:101C6C00627567203D2025750A0025753A20434F83
:101C7C004E564552545F54202830782530327829FE
:101C8C00206F6E206368616E6E656C202575207701
:101C9C006974686F75742072656164696E6720730E
:101CAC0074617475732028676F6F6420666F72207F
:101CBC00706172617369746520706F776572290A3F
:101CCC000074686520636F6E76657273696F6E2041
:101CDC0077617320737461727465642E0074686527
:101CEC0020636F6E76657273696F6E2053484F5523
:101CFC004C4420626520646F6E65206E6F772E00F9
:101D0C0025753A205345415243485F524F4D202888
:101D1C0030782530327829206F6E206368616E6EC2
:101D2C00656C202575203A20200A00257500257544
:101D3C003A2072657365742F70726573656E636596
:101D4C0020646574656374206F6E206368616E6EC9
:101D5C00656C202575200A0020202020202D3E2097
:101D6C0073656E736F7220696E6974206661696C3D
:101D7C00656420776974682072657475726E20636F
:101D8C006F64652025750A00202020202D3E2073CD
:101D9C00656E736F7220696E697420737563636509
:101DAC0065646564000A25303375203A200073752C
:101DBC00626D697420524541445F504F5745525FE4
:101DCC00535550504C5920283078253032782920E2
:101DDC00746F206368616E6E656C2025750A002532
:101DEC00753A20534B49505F524F4D3A203078256D
:101DFC003032780A0025753A20524541445F5343EE
:101E0C0052415443485041443A203078253032787E
:101E1C000A0072656164696E672073637261746332
:101E2C00687061643A200074656D706572617475D8
:101E3C0072653A202532752E25337520430A0054DD
:101E4C00683A2025337520430A00546C3A20253318
:101E5C007520430A00636F6E666967203A2000455F
:101E6C0052433A203078253032780A006163746925
:101E7C007665206368616E6E656C206973206E6F89
:061E8C00772025750A0015
:00000001FF
