S01400005247425F4C45445F776176652E73726563EF
S11300000C9434000C943E000C943E000C943E007E
S11300100C943E000C943E000C943E000C943E0064
S11300200C943E000C943E000C943E000C943E0054
S11300300C943E000C943E000C943E000C943E0044
S11300400C943E000C943E000C943E000C943E0034
S11300500C943E000C943E000C943E000C943E0024
S11300600C943E000C943E0011241FBECFEFD8E048
S1130070DEBFCDBF0E9477000C94E0000C9400001A
S1130080DC01CB016FB7F89445B1426055B15D7F97
S113009037E02D9145B9220F30F055B9000027FB08
S11300A0315031F0F7CF000027FB315055B991F7AB
S11300B037E045B93EF0000055B92D91019751F74D
S11300C06FBF08952D91019755B921F76FBF08951A
S11300D00F9370E0FB01EE0FFF1F6E0F7F1FFC01FB
S11300E0E60FF71F2083418302830F910895CF9376
S11300F0DF93CDB7DEB7C25AD1090FB6F894DEBF8D
S11301000FBECDBF209A219A229AFE01319682EA2F
S1130110DF011D928A95E9F7912CA92CB92CF92CB1
S1130120C92C4CC00E2D2D2D4C2D612FCE010196C6
S11301300E946800111116C00F2D2F2D4F2D65E35D
S1130140CE0101960E94680062EA70E0CE01019639
S11301500E9440008FE19EE40197F1F700C0000087
S11301601F5FE0CF6FEF610F0F2D2F2D4F2DCE01AD
S113017001960E94680062EA70E0CE0101960E9436
S11301804000AFE1BEE41197F1F700C000001F5F2B
S1130190163341F6B9E1EB0E8BE4E81611F01F2D8E
S11301A0C1CF99E1D90EABE4DA1611F0EB2CF7CFFD
S11301B0B9E1CB0E8BE4C81609F4B2CFDA2CF6CF32
S10701C0F894FFCFDD
S9030000FC
